{
  "contractName": "Chihuahuax",
  "abi": [
    {
      "inputs": [],
      "stateMutability": "nonpayable",
      "type": "constructor"
    },
    {
      "anonymous": false,
      "inputs": [
        {
          "indexed": true,
          "internalType": "address",
          "name": "_owner",
          "type": "address"
        },
        {
          "indexed": true,
          "internalType": "address",
          "name": "_approved",
          "type": "address"
        },
        {
          "indexed": true,
          "internalType": "uint256",
          "name": "_tokenId",
          "type": "uint256"
        }
      ],
      "name": "Approval",
      "type": "event"
    },
    {
      "anonymous": false,
      "inputs": [
        {
          "indexed": true,
          "internalType": "address",
          "name": "_owner",
          "type": "address"
        },
        {
          "indexed": true,
          "internalType": "address",
          "name": "_operator",
          "type": "address"
        },
        {
          "indexed": false,
          "internalType": "bool",
          "name": "_approved",
          "type": "bool"
        }
      ],
      "name": "ApprovalForAll",
      "type": "event"
    },
    {
      "anonymous": false,
      "inputs": [
        {
          "indexed": true,
          "internalType": "address",
          "name": "_from",
          "type": "address"
        },
        {
          "indexed": true,
          "internalType": "address",
          "name": "_to",
          "type": "address"
        },
        {
          "indexed": true,
          "internalType": "uint256",
          "name": "_tokenId",
          "type": "uint256"
        }
      ],
      "name": "Transfer",
      "type": "event"
    },
    {
      "inputs": [
        {
          "internalType": "address",
          "name": "_to",
          "type": "address"
        },
        {
          "internalType": "uint256",
          "name": "_tokenId",
          "type": "uint256"
        }
      ],
      "name": "approve",
      "outputs": [],
      "stateMutability": "nonpayable",
      "type": "function"
    },
    {
      "inputs": [
        {
          "internalType": "address",
          "name": "_owner",
          "type": "address"
        }
      ],
      "name": "balanceOf",
      "outputs": [
        {
          "internalType": "uint256",
          "name": "",
          "type": "uint256"
        }
      ],
      "stateMutability": "view",
      "type": "function",
      "constant": true
    },
    {
      "inputs": [
        {
          "internalType": "uint256",
          "name": "",
          "type": "uint256"
        }
      ],
      "name": "chihuahuax",
      "outputs": [
        {
          "internalType": "string",
          "name": "",
          "type": "string"
        }
      ],
      "stateMutability": "view",
      "type": "function",
      "constant": true
    },
    {
      "inputs": [
        {
          "internalType": "uint256",
          "name": "_tokenId",
          "type": "uint256"
        }
      ],
      "name": "getApproved",
      "outputs": [
        {
          "internalType": "address",
          "name": "",
          "type": "address"
        }
      ],
      "stateMutability": "view",
      "type": "function",
      "constant": true
    },
    {
      "inputs": [
        {
          "internalType": "address",
          "name": "_owner",
          "type": "address"
        },
        {
          "internalType": "address",
          "name": "_operator",
          "type": "address"
        }
      ],
      "name": "isApprovedForAll",
      "outputs": [
        {
          "internalType": "bool",
          "name": "",
          "type": "bool"
        }
      ],
      "stateMutability": "view",
      "type": "function",
      "constant": true
    },
    {
      "inputs": [],
      "name": "name",
      "outputs": [
        {
          "internalType": "string",
          "name": "",
          "type": "string"
        }
      ],
      "stateMutability": "view",
      "type": "function",
      "constant": true
    },
    {
      "inputs": [
        {
          "internalType": "uint256",
          "name": "_tokenId",
          "type": "uint256"
        }
      ],
      "name": "ownerOf",
      "outputs": [
        {
          "internalType": "address",
          "name": "",
          "type": "address"
        }
      ],
      "stateMutability": "view",
      "type": "function",
      "constant": true
    },
    {
      "inputs": [
        {
          "internalType": "address",
          "name": "_operator",
          "type": "address"
        },
        {
          "internalType": "bool",
          "name": "_approved",
          "type": "bool"
        }
      ],
      "name": "setApprovalForAll",
      "outputs": [],
      "stateMutability": "nonpayable",
      "type": "function"
    },
    {
      "inputs": [
        {
          "internalType": "bytes4",
          "name": "interfaceID",
          "type": "bytes4"
        }
      ],
      "name": "supportsInterface",
      "outputs": [
        {
          "internalType": "bool",
          "name": "",
          "type": "bool"
        }
      ],
      "stateMutability": "view",
      "type": "function",
      "constant": true
    },
    {
      "inputs": [],
      "name": "symbol",
      "outputs": [
        {
          "internalType": "string",
          "name": "",
          "type": "string"
        }
      ],
      "stateMutability": "view",
      "type": "function",
      "constant": true
    },
    {
      "inputs": [
        {
          "internalType": "uint256",
          "name": "_index",
          "type": "uint256"
        }
      ],
      "name": "tokenByIndex",
      "outputs": [
        {
          "internalType": "uint256",
          "name": "",
          "type": "uint256"
        }
      ],
      "stateMutability": "view",
      "type": "function",
      "constant": true
    },
    {
      "inputs": [
        {
          "internalType": "address",
          "name": "_owner",
          "type": "address"
        },
        {
          "internalType": "uint256",
          "name": "_index",
          "type": "uint256"
        }
      ],
      "name": "tokenOfOwnerByIndex",
      "outputs": [
        {
          "internalType": "uint256",
          "name": "",
          "type": "uint256"
        }
      ],
      "stateMutability": "view",
      "type": "function",
      "constant": true
    },
    {
      "inputs": [],
      "name": "totalSupply",
      "outputs": [
        {
          "internalType": "uint256",
          "name": "",
          "type": "uint256"
        }
      ],
      "stateMutability": "view",
      "type": "function",
      "constant": true
    },
    {
      "inputs": [
        {
          "internalType": "address",
          "name": "_from",
          "type": "address"
        },
        {
          "internalType": "address",
          "name": "_to",
          "type": "address"
        },
        {
          "internalType": "uint256",
          "name": "_tokenId",
          "type": "uint256"
        }
      ],
      "name": "transferFrom",
      "outputs": [],
      "stateMutability": "nonpayable",
      "type": "function"
    },
    {
      "inputs": [
        {
          "internalType": "string",
          "name": "_chihuahua",
          "type": "string"
        }
      ],
      "name": "mint",
      "outputs": [],
      "stateMutability": "nonpayable",
      "type": "function"
    }
  ],
  "bytecode": "0x60806040523480156200001157600080fd5b506040518060400160405280600a81526020017f43686968756168756178000000000000000000000000000000000000000000008152506040518060400160405280600481526020017f43484958000000000000000000000000000000000000000000000000000000008152508181620000b17f01ffc9a7a5cef8baa21ed3c5c0d7e23accb804b619e9333b597f47a0d84076e2620002a460201b60201c565b8160019081620000c29190620005f5565b508060029081620000d49190620005f5565b50620001287f13b182f4c0e5b2efbac0efe6cf6d756c8b89f4b79c5707a043ed9ea740574ee97f7feaf19471f34a12a7eaf32d5f3090aa2260ea8624dc8a138e74e0bf0f62307618620002a460201b60201c565b5050620002277fe0c9b09697cad3aa3f2bcb7fdd781becaefa478990b24e83d3bfdb65623d77537f5af227006b8981efabb10af200ab71f08976cbce54b4c59ae5c97811d19a398c7f90dba0bef8387ab29f95a1abead857c8ccc338f1038f6fa159fa78fd18aff9f77f8c51fd5fcf1f456ec4eb0f32f68d83471264fe082fac12bcbfd2fa4be9eed6c77f22c82707ba960a14c7592ffb6b8cfaa073fed0048a84cc7fa41f6b5bd8e7f2e47f3a6eb71757dfc6e784c1459d26270140c2c147d95ca985c80026fc5301c3eca17f8a7e378434598edc36d108689a030cbc9d7d465de4f74c71bae1028eed6a881b181818181818620002a460201b60201c565b6200029c7f30e35f83661cf8f334d0d6561d2df3f09a53c215220577d7ff751422e5f88c927f6da5e1284143cdd2d15038a59bde3be031250f00291d64494c12d967b3a4e0c37fc53637662700e6c65104059db8bba34439e0c32483ab7c34e3ccae52c73954951818620002a460201b60201c565b505062000785565b63ffffffff60e01b817bffffffffffffffffffffffffffffffffffffffffffffffffffffffff1916036200030f576040517f08c379a0000000000000000000000000000000000000000000000000000000008152600401620003069062000763565b60405180910390fd5b6001600080837bffffffffffffffffffffffffffffffffffffffffffffffffffffffff19167bffffffffffffffffffffffffffffffffffffffffffffffffffffffff1916815260200190815260200160002060006101000a81548160ff02191690831515021790555050565b600081519050919050565b7f4e487b7100000000000000000000000000000000000000000000000000000000600052604160045260246000fd5b7f4e487b7100000000000000000000000000000000000000000000000000000000600052602260045260246000fd5b60006002820490506001821680620003fd57607f821691505b602082108103620004135762000412620003b5565b5b50919050565b60008190508160005260206000209050919050565b60006020601f8301049050919050565b600082821b905092915050565b6000600883026200047d7fffffffffffffffffffffffffffffffffffffffffffffffffffffffffffffffff826200043e565b6200048986836200043e565b95508019841693508086168417925050509392505050565b6000819050919050565b6000819050919050565b6000620004d6620004d0620004ca84620004a1565b620004ab565b620004a1565b9050919050565b6000819050919050565b620004f283620004b5565b6200050a6200050182620004dd565b8484546200044b565b825550505050565b600090565b6200052162000512565b6200052e818484620004e7565b505050565b5b8181101562000556576200054a60008262000517565b60018101905062000534565b5050565b601f821115620005a5576200056f8162000419565b6200057a846200042e565b810160208510156200058a578190505b620005a262000599856200042e565b83018262000533565b50505b505050565b600082821c905092915050565b6000620005ca60001984600802620005aa565b1980831691505092915050565b6000620005e58383620005b7565b9150826002028217905092915050565b62000600826200037b565b67ffffffffffffffff8111156200061c576200061b62000386565b5b620006288254620003e4565b620006358282856200055a565b600060209050601f8311600181146200066d576000841562000658578287015190505b620006648582620005d7565b865550620006d4565b601f1984166200067d8662000419565b60005b82811015620006a75784890151825560018201915060208501945060208101905062000680565b86831015620006c75784890151620006c3601f891682620005b7565b8355505b6001600288020188555050505b505050505050565b600082825260208201905092915050565b7f455243313635202d20496e76616c696420696e7465726661636520726571756560008201527f7374000000000000000000000000000000000000000000000000000000000000602082015250565b60006200074b602283620006dc565b91506200075882620006ed565b604082019050919050565b600060208201905081810360008301526200077e816200073c565b9050919050565b61251f80620007956000396000f3fe608060405234801561001057600080fd5b50600436106100f55760003560e01c80634f6ccce711610097578063a22cb46511610066578063a22cb465146102ac578063b9a6cc39146102c8578063d85d3d27146102f8578063e985e9c514610314576100f5565b80634f6ccce7146101fe5780636352211e1461022e57806370a082311461025e57806395d89b411461028e576100f5565b8063095ea7b3116100d3578063095ea7b31461017857806318160ddd1461019457806323b872dd146101b25780632f745c59146101ce576100f5565b806301ffc9a7146100fa57806306fdde031461012a578063081812fc14610148575b600080fd5b610114600480360381019061010f9190611532565b610344565b604051610121919061157a565b60405180910390f35b6101326103ab565b60405161013f9190611625565b60405180910390f35b610162600480360381019061015d919061167d565b61043d565b60405161016f91906116eb565b60405180910390f35b610192600480360381019061018d9190611732565b6104c2565b005b61019c610638565b6040516101a99190611781565b60405180910390f35b6101cc60048036038101906101c7919061179c565b610645565b005b6101e860048036038101906101e39190611732565b610655565b6040516101f59190611781565b60405180910390f35b6102186004803603810190610213919061167d565b610705565b6040516102259190611781565b60405180910390f35b6102486004803603810190610243919061167d565b610774565b60405161025591906116eb565b60405180910390f35b610278600480360381019061027391906117ef565b610852565b6040516102859190611781565b60405180910390f35b610296610909565b6040516102a39190611625565b60405180910390f35b6102c660048036038101906102c19190611848565b61099b565b005b6102e260048036038101906102dd919061167d565b610b06565b6040516102ef9190611625565b60405180910390f35b610312600480360381019061030d91906119bd565b610bb2565b005b61032e60048036038101906103299190611a06565b610cae565b60405161033b919061157a565b60405180910390f35b6000806000837bffffffffffffffffffffffffffffffffffffffffffffffffffffffff19167bffffffffffffffffffffffffffffffffffffffffffffffffffffffff1916815260200190815260200160002060009054906101000a900460ff169050919050565b6060600180546103ba90611a75565b80601f01602080910402602001604051908101604052809291908181526020018280546103e690611a75565b80156104335780601f1061040857610100808354040283529160200191610433565b820191906000526020600020905b81548152906001019060200180831161041657829003601f168201915b5050505050905090565b600061044882610d42565b610487576040517f08c379a000000000000000000000000000000000000000000000000000000000815260040161047e90611af2565b60405180910390fd5b6005600083815260200190815260200160002060009054906101000a900473ffffffffffffffffffffffffffffffffffffffff169050919050565b60006104cd82610774565b90506104d93383610db4565b610518576040517f08c379a000000000000000000000000000000000000000000000000000000000815260040161050f90611baa565b60405180910390fd5b8073ffffffffffffffffffffffffffffffffffffffff168373ffffffffffffffffffffffffffffffffffffffff1603610586576040517f08c379a000000000000000000000000000000000000000000000000000000000815260040161057d90611c3c565b60405180910390fd5b826005600084815260200190815260200160002060006101000a81548173ffffffffffffffffffffffffffffffffffffffff021916908373ffffffffffffffffffffffffffffffffffffffff160217905550818373ffffffffffffffffffffffffffffffffffffffff168273ffffffffffffffffffffffffffffffffffffffff167f8c5be1e5ebec7d5bd14f71427d1e84f3dd0314c0f7b2291e5b200ac8c7c3b92560405160405180910390a4505050565b6000600780549050905090565b610650838383610ee1565b505050565b600061066083610852565b82106106a1576040517f08c379a000000000000000000000000000000000000000000000000000000000815260040161069890611ca8565b60405180910390fd5b600960008473ffffffffffffffffffffffffffffffffffffffff1673ffffffffffffffffffffffffffffffffffffffff16815260200190815260200160002082815481106106f2576106f1611cc8565b5b9060005260206000200154905092915050565b6000600780549050821061074e576040517f08c379a000000000000000000000000000000000000000000000000000000000815260040161074590611d43565b60405180910390fd5b6007828154811061076257610761611cc8565b5b90600052602060002001549050919050565b60008073ffffffffffffffffffffffffffffffffffffffff166003600084815260200190815260200160002060009054906101000a900473ffffffffffffffffffffffffffffffffffffffff1673ffffffffffffffffffffffffffffffffffffffff1603610817576040517f08c379a000000000000000000000000000000000000000000000000000000000815260040161080e90611daf565b60405180910390fd5b6003600083815260200190815260200160002060009054906101000a900473ffffffffffffffffffffffffffffffffffffffff169050919050565b60008073ffffffffffffffffffffffffffffffffffffffff168273ffffffffffffffffffffffffffffffffffffffff16036108c2576040517f08c379a00000000000000000000000000000000000000000000000000000000081526004016108b990611e41565b60405180910390fd5b600460008373ffffffffffffffffffffffffffffffffffffffff1673ffffffffffffffffffffffffffffffffffffffff168152602001908152602001600020549050919050565b60606002805461091890611a75565b80601f016020809104026020016040519081016040528092919081815260200182805461094490611a75565b80156109915780601f1061096657610100808354040283529160200191610991565b820191906000526020600020905b81548152906001019060200180831161097457829003601f168201915b5050505050905090565b3373ffffffffffffffffffffffffffffffffffffffff168273ffffffffffffffffffffffffffffffffffffffff1603610a09576040517f08c379a0000000000000000000000000000000000000000000000000000000008152600401610a0090611ead565b60405180910390fd5b80600660003373ffffffffffffffffffffffffffffffffffffffff1673ffffffffffffffffffffffffffffffffffffffff16815260200190815260200160002060008473ffffffffffffffffffffffffffffffffffffffff1673ffffffffffffffffffffffffffffffffffffffff16815260200190815260200160002060006101000a81548160ff0219169083151502179055508173ffffffffffffffffffffffffffffffffffffffff163373ffffffffffffffffffffffffffffffffffffffff167f17307eab39ab6107e8899845ad3d59bd9653f200f220920489ca2b5937696c3183604051610afa919061157a565b60405180910390a35050565b600b8181548110610b1657600080fd5b906000526020600020016000915090508054610b3190611a75565b80601f0160208091040260200160405190810160405280929190818152602001828054610b5d90611a75565b8015610baa5780601f10610b7f57610100808354040283529160200191610baa565b820191906000526020600020905b815481529060010190602001808311610b8d57829003601f168201915b505050505081565b600c81604051610bc29190611f09565b908152602001604051809103902060009054906101000a900460ff1615610c1e576040517f08c379a0000000000000000000000000000000000000000000000000000000008152600401610c1590611f92565b60405180910390fd5b600b81908060018154018082558091505060019003906000526020600020016000909190919091509081610c52919061215e565b5060006001600b80549050610c67919061225f565b9050610c7333826111d7565b6001600c83604051610c859190611f09565b908152602001604051809103902060006101000a81548160ff0219169083151502179055505050565b6000600660008473ffffffffffffffffffffffffffffffffffffffff1673ffffffffffffffffffffffffffffffffffffffff16815260200190815260200160002060008373ffffffffffffffffffffffffffffffffffffffff1673ffffffffffffffffffffffffffffffffffffffff16815260200190815260200160002060009054906101000a900460ff16905092915050565b6000806003600084815260200190815260200160002060009054906101000a900473ffffffffffffffffffffffffffffffffffffffff169050600073ffffffffffffffffffffffffffffffffffffffff168173ffffffffffffffffffffffffffffffffffffffff161415915050919050565b6000610dbf82610d42565b610dfe576040517f08c379a0000000000000000000000000000000000000000000000000000000008152600401610df590611af2565b60405180910390fd5b6000610e0983610774565b90506000600660008373ffffffffffffffffffffffffffffffffffffffff1673ffffffffffffffffffffffffffffffffffffffff16815260200190815260200160002060008673ffffffffffffffffffffffffffffffffffffffff1673ffffffffffffffffffffffffffffffffffffffff16815260200190815260200160002060009054906101000a900460ff1690508173ffffffffffffffffffffffffffffffffffffffff168573ffffffffffffffffffffffffffffffffffffffff161480610ed7575060011515811515145b9250505092915050565b610eeb3382610db4565b610ef457600080fd5b600073ffffffffffffffffffffffffffffffffffffffff168273ffffffffffffffffffffffffffffffffffffffff1603610f63576040517f08c379a0000000000000000000000000000000000000000000000000000000008152600401610f5a90612305565b60405180910390fd5b8273ffffffffffffffffffffffffffffffffffffffff16610f8382610774565b73ffffffffffffffffffffffffffffffffffffffff1614610fd9576040517f08c379a0000000000000000000000000000000000000000000000000000000008152600401610fd090612397565b60405180910390fd5b6001600460008573ffffffffffffffffffffffffffffffffffffffff1673ffffffffffffffffffffffffffffffffffffffff1681526020019081526020016000206000828254611029919061225f565b925050819055506001600460008473ffffffffffffffffffffffffffffffffffffffff1673ffffffffffffffffffffffffffffffffffffffff168152602001908152602001600020600082825461108091906123b7565b92505081905550816003600083815260200190815260200160002060006101000a81548173ffffffffffffffffffffffffffffffffffffffff021916908373ffffffffffffffffffffffffffffffffffffffff160217905550600073ffffffffffffffffffffffffffffffffffffffff166005600083815260200190815260200160002060009054906101000a900473ffffffffffffffffffffffffffffffffffffffff1673ffffffffffffffffffffffffffffffffffffffff1614611177576005600082815260200190815260200160002060006101000a81549073ffffffffffffffffffffffffffffffffffffffff02191690555b808273ffffffffffffffffffffffffffffffffffffffff168473ffffffffffffffffffffffffffffffffffffffff167fddf252ad1be2c89b69c2b068fc378daa952ba7f163c4a11628f55a4df523b3ef60405160405180910390a4505050565b6111e182826111f8565b6111ea816113b9565b6111f48282611402565b5050565b600073ffffffffffffffffffffffffffffffffffffffff168273ffffffffffffffffffffffffffffffffffffffff1603611267576040517f08c379a000000000000000000000000000000000000000000000000000000000815260040161125e9061245d565b60405180910390fd5b61127081610d42565b156112b0576040517f08c379a00000000000000000000000000000000000000000000000000000000081526004016112a7906124c9565b60405180910390fd5b816003600083815260200190815260200160002060006101000a81548173ffffffffffffffffffffffffffffffffffffffff021916908373ffffffffffffffffffffffffffffffffffffffff1602179055506001600460008473ffffffffffffffffffffffffffffffffffffffff1673ffffffffffffffffffffffffffffffffffffffff168152602001908152602001600020600082825461135291906123b7565b92505081905550808273ffffffffffffffffffffffffffffffffffffffff16600073ffffffffffffffffffffffffffffffffffffffff167fddf252ad1be2c89b69c2b068fc378daa952ba7f163c4a11628f55a4df523b3ef60405160405180910390a45050565b6007805490506008600083815260200190815260200160002081905550600781908060018154018082558091505060019003906000526020600020016000909190919091505550565b600960008373ffffffffffffffffffffffffffffffffffffffff1673ffffffffffffffffffffffffffffffffffffffff16815260200190815260200160002080549050600a600083815260200190815260200160002081905550600960008373ffffffffffffffffffffffffffffffffffffffff1673ffffffffffffffffffffffffffffffffffffffff1681526020019081526020016000208190806001815401808255809150506001900390600052602060002001600090919091909150555050565b6000604051905090565b600080fd5b600080fd5b60007fffffffff0000000000000000000000000000000000000000000000000000000082169050919050565b61150f816114da565b811461151a57600080fd5b50565b60008135905061152c81611506565b92915050565b600060208284031215611548576115476114d0565b5b60006115568482850161151d565b91505092915050565b60008115159050919050565b6115748161155f565b82525050565b600060208201905061158f600083018461156b565b92915050565b600081519050919050565b600082825260208201905092915050565b60005b838110156115cf5780820151818401526020810190506115b4565b60008484015250505050565b6000601f19601f8301169050919050565b60006115f782611595565b61160181856115a0565b93506116118185602086016115b1565b61161a816115db565b840191505092915050565b6000602082019050818103600083015261163f81846115ec565b905092915050565b6000819050919050565b61165a81611647565b811461166557600080fd5b50565b60008135905061167781611651565b92915050565b600060208284031215611693576116926114d0565b5b60006116a184828501611668565b91505092915050565b600073ffffffffffffffffffffffffffffffffffffffff82169050919050565b60006116d5826116aa565b9050919050565b6116e5816116ca565b82525050565b600060208201905061170060008301846116dc565b92915050565b61170f816116ca565b811461171a57600080fd5b50565b60008135905061172c81611706565b92915050565b60008060408385031215611749576117486114d0565b5b60006117578582860161171d565b925050602061176885828601611668565b9150509250929050565b61177b81611647565b82525050565b60006020820190506117966000830184611772565b92915050565b6000806000606084860312156117b5576117b46114d0565b5b60006117c38682870161171d565b93505060206117d48682870161171d565b92505060406117e586828701611668565b9150509250925092565b600060208284031215611805576118046114d0565b5b60006118138482850161171d565b91505092915050565b6118258161155f565b811461183057600080fd5b50565b6000813590506118428161181c565b92915050565b6000806040838503121561185f5761185e6114d0565b5b600061186d8582860161171d565b925050602061187e85828601611833565b9150509250929050565b600080fd5b600080fd5b7f4e487b7100000000000000000000000000000000000000000000000000000000600052604160045260246000fd5b6118ca826115db565b810181811067ffffffffffffffff821117156118e9576118e8611892565b5b80604052505050565b60006118fc6114c6565b905061190882826118c1565b919050565b600067ffffffffffffffff82111561192857611927611892565b5b611931826115db565b9050602081019050919050565b82818337600083830152505050565b600061196061195b8461190d565b6118f2565b90508281526020810184848401111561197c5761197b61188d565b5b61198784828561193e565b509392505050565b600082601f8301126119a4576119a3611888565b5b81356119b484826020860161194d565b91505092915050565b6000602082840312156119d3576119d26114d0565b5b600082013567ffffffffffffffff8111156119f1576119f06114d5565b5b6119fd8482850161198f565b91505092915050565b60008060408385031215611a1d57611a1c6114d0565b5b6000611a2b8582860161171d565b9250506020611a3c8582860161171d565b9150509250929050565b7f4e487b7100000000000000000000000000000000000000000000000000000000600052602260045260246000fd5b60006002820490506001821680611a8d57607f821691505b602082108103611aa057611a9f611a46565b5b50919050565b7f546f6b656e20646f6573206e6f74206578697374000000000000000000000000600082015250565b6000611adc6014836115a0565b9150611ae782611aa6565b602082019050919050565b60006020820190508181036000830152611b0b81611acf565b9050919050565b7f455243373231202d20617070726f766572202863757272656e742063616c6c6560008201527f7229206973206e6f7420746865206f776e6572206f662074686520746f6b656e60208201527f206e65697468657220616e20617574686f72697a6564206f70657261746f7200604082015250565b6000611b94605f836115a0565b9150611b9f82611b12565b606082019050919050565b60006020820190508181036000830152611bc381611b87565b9050919050565b7f455243373231202d2073656e64696e6720746f6b656e20746f2074686520637560008201527f7272656e74206f776e6572000000000000000000000000000000000000000000602082015250565b6000611c26602b836115a0565b9150611c3182611bca565b604082019050919050565b60006020820190508181036000830152611c5581611c19565b9050919050565b7f4f776e657220696e646578206973206f7574206f6620626f756e647321000000600082015250565b6000611c92601d836115a0565b9150611c9d82611c5c565b602082019050919050565b60006020820190508181036000830152611cc181611c85565b9050919050565b7f4e487b7100000000000000000000000000000000000000000000000000000000600052603260045260246000fd5b7f476c6f62616c20696e646578206973206f7574206f6620626f756e6473210000600082015250565b6000611d2d601e836115a0565b9150611d3882611cf7565b602082019050919050565b60006020820190508181036000830152611d5c81611d20565b9050919050565b7f4552433732313a204e6f6e206578697374656e7420746f6b656e000000000000600082015250565b6000611d99601a836115a0565b9150611da482611d63565b602082019050919050565b60006020820190508181036000830152611dc881611d8c565b9050919050565b7f4552433732313a20746f6b656e20717565727920666f72206e6f6e206578697360008201527f74656e74206f776e657200000000000000000000000000000000000000000000602082015250565b6000611e2b602a836115a0565b9150611e3682611dcf565b604082019050919050565b60006020820190508181036000830152611e5a81611e1e565b9050919050565b7f45524320373231202d20417070726f766520746f2063616c6c65720000000000600082015250565b6000611e97601b836115a0565b9150611ea282611e61565b602082019050919050565b60006020820190508181036000830152611ec681611e8a565b9050919050565b600081905092915050565b6000611ee382611595565b611eed8185611ecd565b9350611efd8185602086016115b1565b80840191505092915050565b6000611f158284611ed8565b915081905092915050565b7f4572726f72202d206368696875616875612068616420616c726561647920626560008201527f656e206d696e7465640000000000000000000000000000000000000000000000602082015250565b6000611f7c6029836115a0565b9150611f8782611f20565b604082019050919050565b60006020820190508181036000830152611fab81611f6f565b9050919050565b60008190508160005260206000209050919050565b60006020601f8301049050919050565b600082821b905092915050565b6000600883026120147fffffffffffffffffffffffffffffffffffffffffffffffffffffffffffffffff82611fd7565b61201e8683611fd7565b95508019841693508086168417925050509392505050565b6000819050919050565b600061205b61205661205184611647565b612036565b611647565b9050919050565b6000819050919050565b61207583612040565b61208961208182612062565b848454611fe4565b825550505050565b600090565b61209e612091565b6120a981848461206c565b505050565b5b818110156120cd576120c2600082612096565b6001810190506120af565b5050565b601f821115612112576120e381611fb2565b6120ec84611fc7565b810160208510156120fb578190505b61210f61210785611fc7565b8301826120ae565b50505b505050565b600082821c905092915050565b600061213560001984600802612117565b1980831691505092915050565b600061214e8383612124565b9150826002028217905092915050565b61216782611595565b67ffffffffffffffff8111156121805761217f611892565b5b61218a8254611a75565b6121958282856120d1565b600060209050601f8311600181146121c857600084156121b6578287015190505b6121c08582612142565b865550612228565b601f1984166121d686611fb2565b60005b828110156121fe578489015182556001820191506020850194506020810190506121d9565b8683101561221b5784890151612217601f891682612124565b8355505b6001600288020188555050505b505050505050565b7f4e487b7100000000000000000000000000000000000000000000000000000000600052601160045260246000fd5b600061226a82611647565b915061227583611647565b925082820390508181111561228d5761228c612230565b5b92915050565b7f455243373231205472616e7366657220746f20746865207a65726f206164647260008201527f6573730000000000000000000000000000000000000000000000000000000000602082015250565b60006122ef6023836115a0565b91506122fa82612293565b604082019050919050565b6000602082019050818103600083015261231e816122e2565b9050919050565b7f4552433732313a20547279696e6720746f207472616e73666572206120746f6b60008201527f656e20746865206164647265737320646f6573206e6f74206f776e2021000000602082015250565b6000612381603d836115a0565b915061238c82612325565b604082019050919050565b600060208201905081810360008301526123b081612374565b9050919050565b60006123c282611647565b91506123cd83611647565b92508282019050808211156123e5576123e4612230565b5b92915050565b7f4552433732313a206d696e74696e6720746f20746865207a65726f206164647260008201527f6573730000000000000000000000000000000000000000000000000000000000602082015250565b60006124476023836115a0565b9150612452826123eb565b604082019050919050565b600060208201905081810360008301526124768161243a565b9050919050565b7f4552433732313a20746f6b656e20616c7265616479206d696e74656400000000600082015250565b60006124b3601c836115a0565b91506124be8261247d565b602082019050919050565b600060208201905081810360008301526124e2816124a6565b905091905056fea2646970667358221220dea705ded5f8c39f55e0b1c607514a93a1da641a2586e03b54b54fddbdd3008964736f6c63430008130033",
  "immutableReferences": {},
  "source": "// SPDX-License-Identifier: MIT\npragma solidity ^0.8.0;\n\nimport './ERC721Connector.sol';\n\ncontract Chihuahuax is ERC721Connector {\n\n    // Array to store our nfts\n    string[] public chihuahuax;\n\n    mapping(string => bool) _chihuahuaxExists;\n\n    function mint(string memory _chihuahua) public {\n\n        require(!_chihuahuaxExists[_chihuahua], 'Error - chihuahua had already been minted');\n\n        // this is deprecated - uint _id = chihuahuax.push(_chihuahua);\n        // .push not longer returns the length but a ref to the added element\n\n        // I should test out if this can replace the 2 lines under\n        // uint _id = chihuahuax.push(_chihuahua).length - 1;\n\n        chihuahuax.push(_chihuahua);\n        uint _id = chihuahuax.length - 1;\n\n        _mint(msg.sender, _id);\n\n        _chihuahuaxExists[_chihuahua] = true;\n\n    }\n\n    constructor() ERC721Connector('Chihuahuax', 'CHIX') { }\n\n}",
  "sourcePath": "/home/marie-lou/Desktop/chihuahuax/src/contracts/Chihuahuax.sol",
  "compiler": {
    "name": "solc",
    "version": "0.8.19+commit.7dd6d404.Emscripten.clang"
  },
  "schemaVersion": "3.4.12",
  "updatedAt": "2023-03-01T15:46:57.222Z",
  "networkType": "ethereum",
  "devdoc": {
    "events": {
      "Approval(address,address,uint256)": {
        "details": "This emits when the approved address for an NFT is changed or  reaffirmed. The zero address indicates there is no approved address.  When a Transfer event emits, this also indicates that the approved  address for that NFT (if any) is reset to none."
      },
      "ApprovalForAll(address,address,bool)": {
        "details": "This emits when an operator is enabled or disabled for an owner.  The operator can manage all NFTs of the owner."
      },
      "Transfer(address,address,uint256)": {
        "details": "This emits when ownership of any NFT changes by any mechanism.  This event emits when NFTs are created (`from` == 0) and destroyed  (`to` == 0). Exception: during contract creation, any number of NFTs  may be created and assigned without emitting Transfer. At the time of  any transfer, the approved address for that NFT (if any) is reset to none."
      }
    },
    "kind": "dev",
    "methods": {
      "approve(address,uint256)": {
        "details": "The zero address indicates there is no approved address.  Throws unless `msg.sender` is the current NFT owner, or an authorized  operator of the current owner.",
        "params": {
          "_to": "The new approved NFT controller",
          "_tokenId": "The NFT to approve"
        }
      },
      "balanceOf(address)": {
        "params": {
          "_owner": "An address for whom to query the balance "
        },
        "returns": {
          "_0": "The number of NFTs owned by `_owner`, possibly zero"
        }
      },
      "getApproved(uint256)": {
        "details": "Throws if `_tokenId` is not a valid NFT.",
        "params": {
          "_tokenId": "The NFT to find the approved address for"
        },
        "returns": {
          "_0": "The approved address for this NFT, or the zero address if there is none"
        }
      },
      "isApprovedForAll(address,address)": {
        "params": {
          "_operator": "The address that acts on behalf of the owner",
          "_owner": "The address that owns the NFTs"
        },
        "returns": {
          "_0": "True if `_operator` is an approved operator for `_owner`, false otherwise"
        }
      },
      "ownerOf(uint256)": {
        "details": "NFTs assigned to zero address are considered invalid and queries about them do throw",
        "params": {
          "_tokenId": "The identifier for an NFT"
        },
        "returns": {
          "_0": "The address of the owner of the NFT"
        }
      },
      "setApprovalForAll(address,bool)": {
        "details": "Emits the ApprovalForAll event. The contract MUST allow  multiple operators per owner.",
        "params": {
          "_approved": "True if the operator is approved, false to revoke approval",
          "_operator": "Address to add to the set of authorized operators"
        }
      },
      "supportsInterface(bytes4)": {
        "details": "Interface inedntification is specified in ERC-165 This function uses less than 30.000 gas.",
        "params": {
          "interfaceID": "the Interface identifier, as specified in ERC-165"
        },
        "returns": {
          "_0": "`true` if the contract implements `interfaceID` and `interfaceID` is not 0xffffffff, `false` otherwise."
        }
      },
      "tokenByIndex(uint256)": {
        "details": "Throws if `_index` >= `totalSupply()`",
        "params": {
          "_index": "A counter less than `totalSupply()`"
        },
        "returns": {
          "_0": "The token identifier for the `_index`th NFT, (sort order not specified)"
        }
      },
      "tokenOfOwnerByIndex(address,uint256)": {
        "details": "Throws if `_index` >= `balanceOf(_owner)` or if `_owner` is the zero address, representing invalid NFTs.",
        "params": {
          "_index": "A counter less than `balanceOf(_owner)`",
          "_owner": "An address where we are interested in NFTs owner"
        },
        "returns": {
          "_0": "The token identifier for the `_index`th NFT assigned  (sort order not specified)"
        }
      },
      "totalSupply()": {
        "returns": {
          "_0": "A count of valid NFTs tracked by this contract,  where each of them has an assigned and queryable owner"
        }
      }
    },
    "version": 1
  },
  "userdoc": {
    "kind": "user",
    "methods": {
      "approve(address,uint256)": {
        "notice": "Change or reaffirm the approved address for an NFT"
      },
      "getApproved(uint256)": {
        "notice": "Get the approved address for a single NFT"
      },
      "isApprovedForAll(address,address)": {
        "notice": "Query if an address is an authorized operator for another address"
      },
      "ownerOf(uint256)": {
        "notice": "Find the owner of an NFT"
      },
      "setApprovalForAll(address,bool)": {
        "notice": "Enable or disable approval for a third party (\"operator\") to manage  all of `msg.sender`'s assets"
      },
      "supportsInterface(bytes4)": {
        "notice": "Query if a contract implements an interface"
      },
      "tokenByIndex(uint256)": {
        "notice": "Enumerate valid NFTs"
      },
      "tokenOfOwnerByIndex(address,uint256)": {
        "notice": "Enumerate NFTs assigne to an owner"
      },
      "totalSupply()": {
        "notice": "Count NFTs tracked by this contract"
      }
    },
    "version": 1
  }
}