{
  "contractName": "Chihuahuax",
  "abi": [
    {
      "inputs": [],
      "stateMutability": "nonpayable",
      "type": "constructor"
    },
    {
      "anonymous": false,
      "inputs": [
        {
          "indexed": true,
          "internalType": "address",
          "name": "_owner",
          "type": "address"
        },
        {
          "indexed": true,
          "internalType": "address",
          "name": "_approved",
          "type": "address"
        },
        {
          "indexed": true,
          "internalType": "uint256",
          "name": "_tokenId",
          "type": "uint256"
        }
      ],
      "name": "Approval",
      "type": "event"
    },
    {
      "anonymous": false,
      "inputs": [
        {
          "indexed": true,
          "internalType": "address",
          "name": "_owner",
          "type": "address"
        },
        {
          "indexed": true,
          "internalType": "address",
          "name": "_operator",
          "type": "address"
        },
        {
          "indexed": false,
          "internalType": "bool",
          "name": "_approved",
          "type": "bool"
        }
      ],
      "name": "ApprovalForAll",
      "type": "event"
    },
    {
      "anonymous": false,
      "inputs": [
        {
          "indexed": true,
          "internalType": "address",
          "name": "_from",
          "type": "address"
        },
        {
          "indexed": true,
          "internalType": "address",
          "name": "_to",
          "type": "address"
        },
        {
          "indexed": true,
          "internalType": "uint256",
          "name": "_tokenId",
          "type": "uint256"
        }
      ],
      "name": "Transfer",
      "type": "event"
    },
    {
      "inputs": [
        {
          "internalType": "address",
          "name": "_to",
          "type": "address"
        },
        {
          "internalType": "uint256",
          "name": "_tokenId",
          "type": "uint256"
        }
      ],
      "name": "approve",
      "outputs": [],
      "stateMutability": "nonpayable",
      "type": "function"
    },
    {
      "inputs": [
        {
          "internalType": "address",
          "name": "_owner",
          "type": "address"
        }
      ],
      "name": "balanceOf",
      "outputs": [
        {
          "internalType": "uint256",
          "name": "",
          "type": "uint256"
        }
      ],
      "stateMutability": "view",
      "type": "function"
    },
    {
      "inputs": [
        {
          "internalType": "uint256",
          "name": "",
          "type": "uint256"
        }
      ],
      "name": "chihuahuax",
      "outputs": [
        {
          "internalType": "string",
          "name": "",
          "type": "string"
        }
      ],
      "stateMutability": "view",
      "type": "function"
    },
    {
      "inputs": [
        {
          "internalType": "uint256",
          "name": "_tokenId",
          "type": "uint256"
        }
      ],
      "name": "getApproved",
      "outputs": [
        {
          "internalType": "address",
          "name": "",
          "type": "address"
        }
      ],
      "stateMutability": "view",
      "type": "function"
    },
    {
      "inputs": [
        {
          "internalType": "address",
          "name": "_owner",
          "type": "address"
        },
        {
          "internalType": "address",
          "name": "_operator",
          "type": "address"
        }
      ],
      "name": "isApprovedForAll",
      "outputs": [
        {
          "internalType": "bool",
          "name": "",
          "type": "bool"
        }
      ],
      "stateMutability": "view",
      "type": "function"
    },
    {
      "inputs": [],
      "name": "name",
      "outputs": [
        {
          "internalType": "string",
          "name": "",
          "type": "string"
        }
      ],
      "stateMutability": "view",
      "type": "function"
    },
    {
      "inputs": [
        {
          "internalType": "uint256",
          "name": "_tokenId",
          "type": "uint256"
        }
      ],
      "name": "ownerOf",
      "outputs": [
        {
          "internalType": "address",
          "name": "",
          "type": "address"
        }
      ],
      "stateMutability": "view",
      "type": "function"
    },
    {
      "inputs": [
        {
          "internalType": "address",
          "name": "_operator",
          "type": "address"
        },
        {
          "internalType": "bool",
          "name": "_approved",
          "type": "bool"
        }
      ],
      "name": "setApprovalForAll",
      "outputs": [],
      "stateMutability": "nonpayable",
      "type": "function"
    },
    {
      "inputs": [
        {
          "internalType": "bytes4",
          "name": "interfaceID",
          "type": "bytes4"
        }
      ],
      "name": "supportsInterface",
      "outputs": [
        {
          "internalType": "bool",
          "name": "",
          "type": "bool"
        }
      ],
      "stateMutability": "view",
      "type": "function"
    },
    {
      "inputs": [],
      "name": "symbol",
      "outputs": [
        {
          "internalType": "string",
          "name": "",
          "type": "string"
        }
      ],
      "stateMutability": "view",
      "type": "function"
    },
    {
      "inputs": [
        {
          "internalType": "uint256",
          "name": "_index",
          "type": "uint256"
        }
      ],
      "name": "tokenByIndex",
      "outputs": [
        {
          "internalType": "uint256",
          "name": "",
          "type": "uint256"
        }
      ],
      "stateMutability": "view",
      "type": "function"
    },
    {
      "inputs": [
        {
          "internalType": "address",
          "name": "_owner",
          "type": "address"
        },
        {
          "internalType": "uint256",
          "name": "_index",
          "type": "uint256"
        }
      ],
      "name": "tokenOfOwnerByIndex",
      "outputs": [
        {
          "internalType": "uint256",
          "name": "",
          "type": "uint256"
        }
      ],
      "stateMutability": "view",
      "type": "function"
    },
    {
      "inputs": [],
      "name": "totalSupply",
      "outputs": [
        {
          "internalType": "uint256",
          "name": "",
          "type": "uint256"
        }
      ],
      "stateMutability": "view",
      "type": "function"
    },
    {
      "inputs": [
        {
          "internalType": "address",
          "name": "_from",
          "type": "address"
        },
        {
          "internalType": "address",
          "name": "_to",
          "type": "address"
        },
        {
          "internalType": "uint256",
          "name": "_tokenId",
          "type": "uint256"
        }
      ],
      "name": "transferFrom",
      "outputs": [],
      "stateMutability": "nonpayable",
      "type": "function"
    },
    {
      "inputs": [
        {
          "internalType": "string",
          "name": "_chihuahua",
          "type": "string"
        }
      ],
      "name": "mint",
      "outputs": [],
      "stateMutability": "nonpayable",
      "type": "function"
    }
  ],
  "bytecode": "0x60806040523480156200001157600080fd5b506040518060400160405280600a81526020017f43686968756168756178000000000000000000000000000000000000000000008152506040518060400160405280600481526020017f43484958000000000000000000000000000000000000000000000000000000008152508181816000908162000091919062000431565b508060019081620000a3919062000431565b505050620000d77f01ffc9a7a5cef8baa21ed3c5c0d7e23accb804b619e9333b597f47a0d84076e2620000df60201b60201c565b5050620005c1565b63ffffffff60e01b817bffffffffffffffffffffffffffffffffffffffffffffffffffffffff1916036200014a576040517f08c379a000000000000000000000000000000000000000000000000000000000815260040162000141906200059f565b60405180910390fd5b600160026000837bffffffffffffffffffffffffffffffffffffffffffffffffffffffff19167bffffffffffffffffffffffffffffffffffffffffffffffffffffffff1916815260200190815260200160002060006101000a81548160ff02191690831515021790555050565b600081519050919050565b7f4e487b7100000000000000000000000000000000000000000000000000000000600052604160045260246000fd5b7f4e487b7100000000000000000000000000000000000000000000000000000000600052602260045260246000fd5b600060028204905060018216806200023957607f821691505b6020821081036200024f576200024e620001f1565b5b50919050565b60008190508160005260206000209050919050565b60006020601f8301049050919050565b600082821b905092915050565b600060088302620002b97fffffffffffffffffffffffffffffffffffffffffffffffffffffffffffffffff826200027a565b620002c586836200027a565b95508019841693508086168417925050509392505050565b6000819050919050565b6000819050919050565b6000620003126200030c6200030684620002dd565b620002e7565b620002dd565b9050919050565b6000819050919050565b6200032e83620002f1565b620003466200033d8262000319565b84845462000287565b825550505050565b600090565b6200035d6200034e565b6200036a81848462000323565b505050565b5b8181101562000392576200038660008262000353565b60018101905062000370565b5050565b601f821115620003e157620003ab8162000255565b620003b6846200026a565b81016020851015620003c6578190505b620003de620003d5856200026a565b8301826200036f565b50505b505050565b600082821c905092915050565b60006200040660001984600802620003e6565b1980831691505092915050565b6000620004218383620003f3565b9150826002028217905092915050565b6200043c82620001b7565b67ffffffffffffffff811115620004585762000457620001c2565b5b62000464825462000220565b6200047182828562000396565b600060209050601f831160018114620004a9576000841562000494578287015190505b620004a0858262000413565b86555062000510565b601f198416620004b98662000255565b60005b82811015620004e357848901518255600182019150602085019450602081019050620004bc565b86831015620005035784890151620004ff601f891682620003f3565b8355505b6001600288020188555050505b505050505050565b600082825260208201905092915050565b7f455243313635202d20496e76616c696420696e7465726661636520726571756560008201527f7374000000000000000000000000000000000000000000000000000000000000602082015250565b60006200058760228362000518565b9150620005948262000529565b604082019050919050565b60006020820190508181036000830152620005ba8162000578565b9050919050565b61252080620005d16000396000f3fe608060405234801561001057600080fd5b50600436106100f55760003560e01c80634f6ccce711610097578063a22cb46511610066578063a22cb465146102ac578063b9a6cc39146102c8578063d85d3d27146102f8578063e985e9c514610314576100f5565b80634f6ccce7146101fe5780636352211e1461022e57806370a082311461025e57806395d89b411461028e576100f5565b8063095ea7b3116100d3578063095ea7b31461017857806318160ddd1461019457806323b872dd146101b25780632f745c59146101ce576100f5565b806301ffc9a7146100fa57806306fdde031461012a578063081812fc14610148575b600080fd5b610114600480360381019061010f9190611533565b610344565b604051610121919061157b565b60405180910390f35b6101326103ac565b60405161013f9190611626565b60405180910390f35b610162600480360381019061015d919061167e565b61043e565b60405161016f91906116ec565b60405180910390f35b610192600480360381019061018d9190611733565b6104c3565b005b61019c610639565b6040516101a99190611782565b60405180910390f35b6101cc60048036038101906101c7919061179d565b610646565b005b6101e860048036038101906101e39190611733565b610656565b6040516101f59190611782565b60405180910390f35b6102186004803603810190610213919061167e565b610706565b6040516102259190611782565b60405180910390f35b6102486004803603810190610243919061167e565b610775565b60405161025591906116ec565b60405180910390f35b610278600480360381019061027391906117f0565b610853565b6040516102859190611782565b60405180910390f35b61029661090a565b6040516102a39190611626565b60405180910390f35b6102c660048036038101906102c19190611849565b61099c565b005b6102e260048036038101906102dd919061167e565b610b07565b6040516102ef9190611626565b60405180910390f35b610312600480360381019061030d91906119be565b610bb3565b005b61032e60048036038101906103299190611a07565b610caf565b60405161033b919061157b565b60405180910390f35b600060026000837bffffffffffffffffffffffffffffffffffffffffffffffffffffffff19167bffffffffffffffffffffffffffffffffffffffffffffffffffffffff1916815260200190815260200160002060009054906101000a900460ff169050919050565b6060600080546103bb90611a76565b80601f01602080910402602001604051908101604052809291908181526020018280546103e790611a76565b80156104345780601f1061040957610100808354040283529160200191610434565b820191906000526020600020905b81548152906001019060200180831161041757829003601f168201915b5050505050905090565b600061044982610d43565b610488576040517f08c379a000000000000000000000000000000000000000000000000000000000815260040161047f90611af3565b60405180910390fd5b6005600083815260200190815260200160002060009054906101000a900473ffffffffffffffffffffffffffffffffffffffff169050919050565b60006104ce82610775565b90506104da3383610db5565b610519576040517f08c379a000000000000000000000000000000000000000000000000000000000815260040161051090611bab565b60405180910390fd5b8073ffffffffffffffffffffffffffffffffffffffff168373ffffffffffffffffffffffffffffffffffffffff1603610587576040517f08c379a000000000000000000000000000000000000000000000000000000000815260040161057e90611c3d565b60405180910390fd5b826005600084815260200190815260200160002060006101000a81548173ffffffffffffffffffffffffffffffffffffffff021916908373ffffffffffffffffffffffffffffffffffffffff160217905550818373ffffffffffffffffffffffffffffffffffffffff168273ffffffffffffffffffffffffffffffffffffffff167f8c5be1e5ebec7d5bd14f71427d1e84f3dd0314c0f7b2291e5b200ac8c7c3b92560405160405180910390a4505050565b6000600780549050905090565b610651838383610ee2565b505050565b600061066183610853565b82106106a2576040517f08c379a000000000000000000000000000000000000000000000000000000000815260040161069990611ca9565b60405180910390fd5b600960008473ffffffffffffffffffffffffffffffffffffffff1673ffffffffffffffffffffffffffffffffffffffff16815260200190815260200160002082815481106106f3576106f2611cc9565b5b9060005260206000200154905092915050565b6000600780549050821061074f576040517f08c379a000000000000000000000000000000000000000000000000000000000815260040161074690611d44565b60405180910390fd5b6007828154811061076357610762611cc9565b5b90600052602060002001549050919050565b60008073ffffffffffffffffffffffffffffffffffffffff166003600084815260200190815260200160002060009054906101000a900473ffffffffffffffffffffffffffffffffffffffff1673ffffffffffffffffffffffffffffffffffffffff1603610818576040517f08c379a000000000000000000000000000000000000000000000000000000000815260040161080f90611db0565b60405180910390fd5b6003600083815260200190815260200160002060009054906101000a900473ffffffffffffffffffffffffffffffffffffffff169050919050565b60008073ffffffffffffffffffffffffffffffffffffffff168273ffffffffffffffffffffffffffffffffffffffff16036108c3576040517f08c379a00000000000000000000000000000000000000000000000000000000081526004016108ba90611e42565b60405180910390fd5b600460008373ffffffffffffffffffffffffffffffffffffffff1673ffffffffffffffffffffffffffffffffffffffff168152602001908152602001600020549050919050565b60606001805461091990611a76565b80601f016020809104026020016040519081016040528092919081815260200182805461094590611a76565b80156109925780601f1061096757610100808354040283529160200191610992565b820191906000526020600020905b81548152906001019060200180831161097557829003601f168201915b5050505050905090565b3373ffffffffffffffffffffffffffffffffffffffff168273ffffffffffffffffffffffffffffffffffffffff1603610a0a576040517f08c379a0000000000000000000000000000000000000000000000000000000008152600401610a0190611eae565b60405180910390fd5b80600660003373ffffffffffffffffffffffffffffffffffffffff1673ffffffffffffffffffffffffffffffffffffffff16815260200190815260200160002060008473ffffffffffffffffffffffffffffffffffffffff1673ffffffffffffffffffffffffffffffffffffffff16815260200190815260200160002060006101000a81548160ff0219169083151502179055508173ffffffffffffffffffffffffffffffffffffffff163373ffffffffffffffffffffffffffffffffffffffff167f17307eab39ab6107e8899845ad3d59bd9653f200f220920489ca2b5937696c3183604051610afb919061157b565b60405180910390a35050565b600b8181548110610b1757600080fd5b906000526020600020016000915090508054610b3290611a76565b80601f0160208091040260200160405190810160405280929190818152602001828054610b5e90611a76565b8015610bab5780601f10610b8057610100808354040283529160200191610bab565b820191906000526020600020905b815481529060010190602001808311610b8e57829003601f168201915b505050505081565b600c81604051610bc39190611f0a565b908152602001604051809103902060009054906101000a900460ff1615610c1f576040517f08c379a0000000000000000000000000000000000000000000000000000000008152600401610c1690611f93565b60405180910390fd5b600b81908060018154018082558091505060019003906000526020600020016000909190919091509081610c53919061215f565b5060006001600b80549050610c689190612260565b9050610c7433826111d8565b6001600c83604051610c869190611f0a565b908152602001604051809103902060006101000a81548160ff0219169083151502179055505050565b6000600660008473ffffffffffffffffffffffffffffffffffffffff1673ffffffffffffffffffffffffffffffffffffffff16815260200190815260200160002060008373ffffffffffffffffffffffffffffffffffffffff1673ffffffffffffffffffffffffffffffffffffffff16815260200190815260200160002060009054906101000a900460ff16905092915050565b6000806003600084815260200190815260200160002060009054906101000a900473ffffffffffffffffffffffffffffffffffffffff169050600073ffffffffffffffffffffffffffffffffffffffff168173ffffffffffffffffffffffffffffffffffffffff161415915050919050565b6000610dc082610d43565b610dff576040517f08c379a0000000000000000000000000000000000000000000000000000000008152600401610df690611af3565b60405180910390fd5b6000610e0a83610775565b90506000600660008373ffffffffffffffffffffffffffffffffffffffff1673ffffffffffffffffffffffffffffffffffffffff16815260200190815260200160002060008673ffffffffffffffffffffffffffffffffffffffff1673ffffffffffffffffffffffffffffffffffffffff16815260200190815260200160002060009054906101000a900460ff1690508173ffffffffffffffffffffffffffffffffffffffff168573ffffffffffffffffffffffffffffffffffffffff161480610ed8575060011515811515145b9250505092915050565b610eec3382610db5565b610ef557600080fd5b600073ffffffffffffffffffffffffffffffffffffffff168273ffffffffffffffffffffffffffffffffffffffff1603610f64576040517f08c379a0000000000000000000000000000000000000000000000000000000008152600401610f5b90612306565b60405180910390fd5b8273ffffffffffffffffffffffffffffffffffffffff16610f8482610775565b73ffffffffffffffffffffffffffffffffffffffff1614610fda576040517f08c379a0000000000000000000000000000000000000000000000000000000008152600401610fd190612398565b60405180910390fd5b6001600460008573ffffffffffffffffffffffffffffffffffffffff1673ffffffffffffffffffffffffffffffffffffffff168152602001908152602001600020600082825461102a9190612260565b925050819055506001600460008473ffffffffffffffffffffffffffffffffffffffff1673ffffffffffffffffffffffffffffffffffffffff168152602001908152602001600020600082825461108191906123b8565b92505081905550816003600083815260200190815260200160002060006101000a81548173ffffffffffffffffffffffffffffffffffffffff021916908373ffffffffffffffffffffffffffffffffffffffff160217905550600073ffffffffffffffffffffffffffffffffffffffff166005600083815260200190815260200160002060009054906101000a900473ffffffffffffffffffffffffffffffffffffffff1673ffffffffffffffffffffffffffffffffffffffff1614611178576005600082815260200190815260200160002060006101000a81549073ffffffffffffffffffffffffffffffffffffffff02191690555b808273ffffffffffffffffffffffffffffffffffffffff168473ffffffffffffffffffffffffffffffffffffffff167fddf252ad1be2c89b69c2b068fc378daa952ba7f163c4a11628f55a4df523b3ef60405160405180910390a4505050565b6111e282826111f9565b6111eb816113ba565b6111f58282611403565b5050565b600073ffffffffffffffffffffffffffffffffffffffff168273ffffffffffffffffffffffffffffffffffffffff1603611268576040517f08c379a000000000000000000000000000000000000000000000000000000000815260040161125f9061245e565b60405180910390fd5b61127181610d43565b156112b1576040517f08c379a00000000000000000000000000000000000000000000000000000000081526004016112a8906124ca565b60405180910390fd5b816003600083815260200190815260200160002060006101000a81548173ffffffffffffffffffffffffffffffffffffffff021916908373ffffffffffffffffffffffffffffffffffffffff1602179055506001600460008473ffffffffffffffffffffffffffffffffffffffff1673ffffffffffffffffffffffffffffffffffffffff168152602001908152602001600020600082825461135391906123b8565b92505081905550808273ffffffffffffffffffffffffffffffffffffffff16600073ffffffffffffffffffffffffffffffffffffffff167fddf252ad1be2c89b69c2b068fc378daa952ba7f163c4a11628f55a4df523b3ef60405160405180910390a45050565b6007805490506008600083815260200190815260200160002081905550600781908060018154018082558091505060019003906000526020600020016000909190919091505550565b600960008373ffffffffffffffffffffffffffffffffffffffff1673ffffffffffffffffffffffffffffffffffffffff16815260200190815260200160002080549050600a600083815260200190815260200160002081905550600960008373ffffffffffffffffffffffffffffffffffffffff1673ffffffffffffffffffffffffffffffffffffffff1681526020019081526020016000208190806001815401808255809150506001900390600052602060002001600090919091909150555050565b6000604051905090565b600080fd5b600080fd5b60007fffffffff0000000000000000000000000000000000000000000000000000000082169050919050565b611510816114db565b811461151b57600080fd5b50565b60008135905061152d81611507565b92915050565b600060208284031215611549576115486114d1565b5b60006115578482850161151e565b91505092915050565b60008115159050919050565b61157581611560565b82525050565b6000602082019050611590600083018461156c565b92915050565b600081519050919050565b600082825260208201905092915050565b60005b838110156115d05780820151818401526020810190506115b5565b60008484015250505050565b6000601f19601f8301169050919050565b60006115f882611596565b61160281856115a1565b93506116128185602086016115b2565b61161b816115dc565b840191505092915050565b6000602082019050818103600083015261164081846115ed565b905092915050565b6000819050919050565b61165b81611648565b811461166657600080fd5b50565b60008135905061167881611652565b92915050565b600060208284031215611694576116936114d1565b5b60006116a284828501611669565b91505092915050565b600073ffffffffffffffffffffffffffffffffffffffff82169050919050565b60006116d6826116ab565b9050919050565b6116e6816116cb565b82525050565b600060208201905061170160008301846116dd565b92915050565b611710816116cb565b811461171b57600080fd5b50565b60008135905061172d81611707565b92915050565b6000806040838503121561174a576117496114d1565b5b60006117588582860161171e565b925050602061176985828601611669565b9150509250929050565b61177c81611648565b82525050565b60006020820190506117976000830184611773565b92915050565b6000806000606084860312156117b6576117b56114d1565b5b60006117c48682870161171e565b93505060206117d58682870161171e565b92505060406117e686828701611669565b9150509250925092565b600060208284031215611806576118056114d1565b5b60006118148482850161171e565b91505092915050565b61182681611560565b811461183157600080fd5b50565b6000813590506118438161181d565b92915050565b600080604083850312156118605761185f6114d1565b5b600061186e8582860161171e565b925050602061187f85828601611834565b9150509250929050565b600080fd5b600080fd5b7f4e487b7100000000000000000000000000000000000000000000000000000000600052604160045260246000fd5b6118cb826115dc565b810181811067ffffffffffffffff821117156118ea576118e9611893565b5b80604052505050565b60006118fd6114c7565b905061190982826118c2565b919050565b600067ffffffffffffffff82111561192957611928611893565b5b611932826115dc565b9050602081019050919050565b82818337600083830152505050565b600061196161195c8461190e565b6118f3565b90508281526020810184848401111561197d5761197c61188e565b5b61198884828561193f565b509392505050565b600082601f8301126119a5576119a4611889565b5b81356119b584826020860161194e565b91505092915050565b6000602082840312156119d4576119d36114d1565b5b600082013567ffffffffffffffff8111156119f2576119f16114d6565b5b6119fe84828501611990565b91505092915050565b60008060408385031215611a1e57611a1d6114d1565b5b6000611a2c8582860161171e565b9250506020611a3d8582860161171e565b9150509250929050565b7f4e487b7100000000000000000000000000000000000000000000000000000000600052602260045260246000fd5b60006002820490506001821680611a8e57607f821691505b602082108103611aa157611aa0611a47565b5b50919050565b7f546f6b656e20646f6573206e6f74206578697374000000000000000000000000600082015250565b6000611add6014836115a1565b9150611ae882611aa7565b602082019050919050565b60006020820190508181036000830152611b0c81611ad0565b9050919050565b7f455243373231202d20617070726f766572202863757272656e742063616c6c6560008201527f7229206973206e6f7420746865206f776e6572206f662074686520746f6b656e60208201527f206e65697468657220616e20617574686f72697a6564206f70657261746f7200604082015250565b6000611b95605f836115a1565b9150611ba082611b13565b606082019050919050565b60006020820190508181036000830152611bc481611b88565b9050919050565b7f455243373231202d2073656e64696e6720746f6b656e20746f2074686520637560008201527f7272656e74206f776e6572000000000000000000000000000000000000000000602082015250565b6000611c27602b836115a1565b9150611c3282611bcb565b604082019050919050565b60006020820190508181036000830152611c5681611c1a565b9050919050565b7f4f776e657220696e646578206973206f7574206f6620626f756e647321000000600082015250565b6000611c93601d836115a1565b9150611c9e82611c5d565b602082019050919050565b60006020820190508181036000830152611cc281611c86565b9050919050565b7f4e487b7100000000000000000000000000000000000000000000000000000000600052603260045260246000fd5b7f476c6f62616c20696e646578206973206f7574206f6620626f756e6473210000600082015250565b6000611d2e601e836115a1565b9150611d3982611cf8565b602082019050919050565b60006020820190508181036000830152611d5d81611d21565b9050919050565b7f4552433732313a204e6f6e206578697374656e7420746f6b656e000000000000600082015250565b6000611d9a601a836115a1565b9150611da582611d64565b602082019050919050565b60006020820190508181036000830152611dc981611d8d565b9050919050565b7f4552433732313a20746f6b656e20717565727920666f72206e6f6e206578697360008201527f74656e74206f776e657200000000000000000000000000000000000000000000602082015250565b6000611e2c602a836115a1565b9150611e3782611dd0565b604082019050919050565b60006020820190508181036000830152611e5b81611e1f565b9050919050565b7f45524320373231202d20417070726f766520746f2063616c6c65720000000000600082015250565b6000611e98601b836115a1565b9150611ea382611e62565b602082019050919050565b60006020820190508181036000830152611ec781611e8b565b9050919050565b600081905092915050565b6000611ee482611596565b611eee8185611ece565b9350611efe8185602086016115b2565b80840191505092915050565b6000611f168284611ed9565b915081905092915050565b7f4572726f72202d206368696875616875612068616420616c726561647920626560008201527f656e206d696e7465640000000000000000000000000000000000000000000000602082015250565b6000611f7d6029836115a1565b9150611f8882611f21565b604082019050919050565b60006020820190508181036000830152611fac81611f70565b9050919050565b60008190508160005260206000209050919050565b60006020601f8301049050919050565b600082821b905092915050565b6000600883026120157fffffffffffffffffffffffffffffffffffffffffffffffffffffffffffffffff82611fd8565b61201f8683611fd8565b95508019841693508086168417925050509392505050565b6000819050919050565b600061205c61205761205284611648565b612037565b611648565b9050919050565b6000819050919050565b61207683612041565b61208a61208282612063565b848454611fe5565b825550505050565b600090565b61209f612092565b6120aa81848461206d565b505050565b5b818110156120ce576120c3600082612097565b6001810190506120b0565b5050565b601f821115612113576120e481611fb3565b6120ed84611fc8565b810160208510156120fc578190505b61211061210885611fc8565b8301826120af565b50505b505050565b600082821c905092915050565b600061213660001984600802612118565b1980831691505092915050565b600061214f8383612125565b9150826002028217905092915050565b61216882611596565b67ffffffffffffffff81111561218157612180611893565b5b61218b8254611a76565b6121968282856120d2565b600060209050601f8311600181146121c957600084156121b7578287015190505b6121c18582612143565b865550612229565b601f1984166121d786611fb3565b60005b828110156121ff578489015182556001820191506020850194506020810190506121da565b8683101561221c5784890151612218601f891682612125565b8355505b6001600288020188555050505b505050505050565b7f4e487b7100000000000000000000000000000000000000000000000000000000600052601160045260246000fd5b600061226b82611648565b915061227683611648565b925082820390508181111561228e5761228d612231565b5b92915050565b7f455243373231205472616e7366657220746f20746865207a65726f206164647260008201527f6573730000000000000000000000000000000000000000000000000000000000602082015250565b60006122f06023836115a1565b91506122fb82612294565b604082019050919050565b6000602082019050818103600083015261231f816122e3565b9050919050565b7f4552433732313a20547279696e6720746f207472616e73666572206120746f6b60008201527f656e20746865206164647265737320646f6573206e6f74206f776e2021000000602082015250565b6000612382603d836115a1565b915061238d82612326565b604082019050919050565b600060208201905081810360008301526123b181612375565b9050919050565b60006123c382611648565b91506123ce83611648565b92508282019050808211156123e6576123e5612231565b5b92915050565b7f4552433732313a206d696e74696e6720746f20746865207a65726f206164647260008201527f6573730000000000000000000000000000000000000000000000000000000000602082015250565b60006124486023836115a1565b9150612453826123ec565b604082019050919050565b600060208201905081810360008301526124778161243b565b9050919050565b7f4552433732313a20746f6b656e20616c7265616479206d696e74656400000000600082015250565b60006124b4601c836115a1565b91506124bf8261247e565b602082019050919050565b600060208201905081810360008301526124e3816124a7565b905091905056fea26469706673582212207baa38742c767c6d3ba7049ccfc26b8f9b49b391b7589701f3138f142c77e77964736f6c63430008130033",
  "immutableReferences": {},
  "source": "// SPDX-License-Identifier: MIT\npragma solidity ^0.8.0;\n\nimport './ERC721Connector.sol';\n\ncontract Chihuahuax is ERC721Connector {\n\n    // Array to store our nfts\n    string[] public chihuahuax;\n\n    mapping(string => bool) _chihuahuaxExists;\n\n    function mint(string memory _chihuahua) public {\n\n        require(!_chihuahuaxExists[_chihuahua], 'Error - chihuahua had already been minted');\n\n        // this is deprecated - uint _id = chihuahuax.push(_chihuahua);\n        // .push not longer returns the length but a ref to the added element\n\n        // I should test out if this can replace the 2 lines under\n        // uint _id = chihuahuax.push(_chihuahua).length - 1;\n\n        chihuahuax.push(_chihuahua);\n        uint _id = chihuahuax.length - 1;\n\n        _mint(msg.sender, _id);\n\n        _chihuahuaxExists[_chihuahua] = true;\n\n    }\n\n    constructor() ERC721Connector('Chihuahuax', 'CHIX') { }\n\n}",
  "sourcePath": "/home/marie-lou/Desktop/chihuahuax/src/contracts/Chihuahuax.sol",
  "compiler": {
    "name": "solc",
    "version": "0.8.19+commit.7dd6d404.Emscripten.clang"
  },
  "schemaVersion": "3.4.12",
  "updatedAt": "2023-03-01T14:48:32.440Z",
  "devdoc": {
    "events": {
      "Approval(address,address,uint256)": {
        "details": "This emits when the approved address for an NFT is changed or  reaffirmed. The zero address indicates there is no approved address.  When a Transfer event emits, this also indicates that the approved  address for that NFT (if any) is reset to none."
      },
      "ApprovalForAll(address,address,bool)": {
        "details": "This emits when an operator is enabled or disabled for an owner.  The operator can manage all NFTs of the owner."
      },
      "Transfer(address,address,uint256)": {
        "details": "This emits when ownership of any NFT changes by any mechanism.  This event emits when NFTs are created (`from` == 0) and destroyed  (`to` == 0). Exception: during contract creation, any number of NFTs  may be created and assigned without emitting Transfer. At the time of  any transfer, the approved address for that NFT (if any) is reset to none."
      }
    },
    "kind": "dev",
    "methods": {
      "approve(address,uint256)": {
        "details": "The zero address indicates there is no approved address.  Throws unless `msg.sender` is the current NFT owner, or an authorized  operator of the current owner.",
        "params": {
          "_to": "The new approved NFT controller",
          "_tokenId": "The NFT to approve"
        }
      },
      "balanceOf(address)": {
        "params": {
          "_owner": "An address for whom to query the balance "
        },
        "returns": {
          "_0": "The number of NFTs owned by `_owner`, possibly zero"
        }
      },
      "getApproved(uint256)": {
        "details": "Throws if `_tokenId` is not a valid NFT.",
        "params": {
          "_tokenId": "The NFT to find the approved address for"
        },
        "returns": {
          "_0": "The approved address for this NFT, or the zero address if there is none"
        }
      },
      "isApprovedForAll(address,address)": {
        "params": {
          "_operator": "The address that acts on behalf of the owner",
          "_owner": "The address that owns the NFTs"
        },
        "returns": {
          "_0": "True if `_operator` is an approved operator for `_owner`, false otherwise"
        }
      },
      "ownerOf(uint256)": {
        "details": "NFTs assigned to zero address are considered invalid and queries about them do throw",
        "params": {
          "_tokenId": "The identifier for an NFT"
        },
        "returns": {
          "_0": "The address of the owner of the NFT"
        }
      },
      "setApprovalForAll(address,bool)": {
        "details": "Emits the ApprovalForAll event. The contract MUST allow  multiple operators per owner.",
        "params": {
          "_approved": "True if the operator is approved, false to revoke approval",
          "_operator": "Address to add to the set of authorized operators"
        }
      },
      "supportsInterface(bytes4)": {
        "details": "Interface inedntification is specified in ERC-165 This function uses less than 30.000 gas.",
        "params": {
          "interfaceID": "the Interface identifier, as specified in ERC-165"
        },
        "returns": {
          "_0": "`true` if the contract implements `interfaceID` and `interfaceID` is not 0xffffffff, `false` otherwise."
        }
      },
      "tokenByIndex(uint256)": {
        "details": "Throws if `_index` >= `totalSupply()`",
        "params": {
          "_index": "A counter less than `totalSupply()`"
        },
        "returns": {
          "_0": "The token identifier for the `_index`th NFT, (sort order not specified)"
        }
      },
      "tokenOfOwnerByIndex(address,uint256)": {
        "details": "Throws if `_index` >= `balanceOf(_owner)` or if `_owner` is the zero address, representing invalid NFTs.",
        "params": {
          "_index": "A counter less than `balanceOf(_owner)`",
          "_owner": "An address where we are interested in NFTs owner"
        },
        "returns": {
          "_0": "The token identifier for the `_index`th NFT assigned  (sort order not specified)"
        }
      },
      "totalSupply()": {
        "returns": {
          "_0": "A count of valid NFTs tracked by this contract,  where each of them has an assigned and queryable owner"
        }
      }
    },
    "version": 1
  },
  "userdoc": {
    "kind": "user",
    "methods": {
      "approve(address,uint256)": {
        "notice": "Change or reaffirm the approved address for an NFT"
      },
      "getApproved(uint256)": {
        "notice": "Get the approved address for a single NFT"
      },
      "isApprovedForAll(address,address)": {
        "notice": "Query if an address is an authorized operator for another address"
      },
      "ownerOf(uint256)": {
        "notice": "Find the owner of an NFT"
      },
      "setApprovalForAll(address,bool)": {
        "notice": "Enable or disable approval for a third party (\"operator\") to manage  all of `msg.sender`'s assets"
      },
      "supportsInterface(bytes4)": {
        "notice": "Query if a contract implements an interface"
      },
      "tokenByIndex(uint256)": {
        "notice": "Enumerate valid NFTs"
      },
      "tokenOfOwnerByIndex(address,uint256)": {
        "notice": "Enumerate NFTs assigne to an owner"
      },
      "totalSupply()": {
        "notice": "Count NFTs tracked by this contract"
      }
    },
    "version": 1
  }
}