{
  "contractName": "ERC721Connector",
  "abi": [
    {
      "inputs": [
        {
          "internalType": "string",
          "name": "name",
          "type": "string"
        },
        {
          "internalType": "string",
          "name": "symbol",
          "type": "string"
        }
      ],
      "stateMutability": "nonpayable",
      "type": "constructor"
    },
    {
      "anonymous": false,
      "inputs": [
        {
          "indexed": true,
          "internalType": "address",
          "name": "from",
          "type": "address"
        },
        {
          "indexed": true,
          "internalType": "address",
          "name": "to",
          "type": "address"
        },
        {
          "indexed": true,
          "internalType": "uint256",
          "name": "tokenId",
          "type": "uint256"
        }
      ],
      "name": "Transfer",
      "type": "event"
    },
    {
      "inputs": [
        {
          "internalType": "address",
          "name": "_owner",
          "type": "address"
        }
      ],
      "name": "balanceOf",
      "outputs": [
        {
          "internalType": "uint256",
          "name": "",
          "type": "uint256"
        }
      ],
      "stateMutability": "view",
      "type": "function"
    },
    {
      "inputs": [],
      "name": "name",
      "outputs": [
        {
          "internalType": "string",
          "name": "",
          "type": "string"
        }
      ],
      "stateMutability": "view",
      "type": "function"
    },
    {
      "inputs": [
        {
          "internalType": "uint256",
          "name": "_tokenId",
          "type": "uint256"
        }
      ],
      "name": "ownerOf",
      "outputs": [
        {
          "internalType": "address",
          "name": "",
          "type": "address"
        }
      ],
      "stateMutability": "view",
      "type": "function"
    },
    {
      "inputs": [],
      "name": "symbol",
      "outputs": [
        {
          "internalType": "string",
          "name": "",
          "type": "string"
        }
      ],
      "stateMutability": "view",
      "type": "function"
    },
    {
      "inputs": [
        {
          "internalType": "uint256",
          "name": "_index",
          "type": "uint256"
        }
      ],
      "name": "tokenByIndex",
      "outputs": [
        {
          "internalType": "uint256",
          "name": "",
          "type": "uint256"
        }
      ],
      "stateMutability": "view",
      "type": "function"
    },
    {
      "inputs": [
        {
          "internalType": "address",
          "name": "_owner",
          "type": "address"
        },
        {
          "internalType": "uint256",
          "name": "_index",
          "type": "uint256"
        }
      ],
      "name": "tokenOfOwnerByIndex",
      "outputs": [
        {
          "internalType": "uint256",
          "name": "",
          "type": "uint256"
        }
      ],
      "stateMutability": "view",
      "type": "function"
    },
    {
      "inputs": [],
      "name": "totalSupply",
      "outputs": [
        {
          "internalType": "uint256",
          "name": "",
          "type": "uint256"
        }
      ],
      "stateMutability": "view",
      "type": "function"
    },
    {
      "inputs": [
        {
          "internalType": "address",
          "name": "_from",
          "type": "address"
        },
        {
          "internalType": "address",
          "name": "_to",
          "type": "address"
        },
        {
          "internalType": "uint256",
          "name": "_tokenId",
          "type": "uint256"
        }
      ],
      "name": "tranferFrom",
      "outputs": [],
      "stateMutability": "nonpayable",
      "type": "function"
    }
  ],
  "bytecode": "0x60806040523480156200001157600080fd5b50604051620015a7380380620015a78339818101604052810190620000379190620001fa565b818181600090816200004a9190620004ca565b5080600190816200005c9190620004ca565b5050505050620005b1565b6000604051905090565b600080fd5b600080fd5b600080fd5b600080fd5b6000601f19601f8301169050919050565b7f4e487b7100000000000000000000000000000000000000000000000000000000600052604160045260246000fd5b620000d08262000085565b810181811067ffffffffffffffff82111715620000f257620000f162000096565b5b80604052505050565b60006200010762000067565b9050620001158282620000c5565b919050565b600067ffffffffffffffff82111562000138576200013762000096565b5b620001438262000085565b9050602081019050919050565b60005b838110156200017057808201518184015260208101905062000153565b60008484015250505050565b6000620001936200018d846200011a565b620000fb565b905082815260208101848484011115620001b257620001b162000080565b5b620001bf84828562000150565b509392505050565b600082601f830112620001df57620001de6200007b565b5b8151620001f18482602086016200017c565b91505092915050565b6000806040838503121562000214576200021362000071565b5b600083015167ffffffffffffffff81111562000235576200023462000076565b5b6200024385828601620001c7565b925050602083015167ffffffffffffffff81111562000267576200026662000076565b5b6200027585828601620001c7565b9150509250929050565b600081519050919050565b7f4e487b7100000000000000000000000000000000000000000000000000000000600052602260045260246000fd5b60006002820490506001821680620002d257607f821691505b602082108103620002e857620002e76200028a565b5b50919050565b60008190508160005260206000209050919050565b60006020601f8301049050919050565b600082821b905092915050565b600060088302620003527fffffffffffffffffffffffffffffffffffffffffffffffffffffffffffffffff8262000313565b6200035e868362000313565b95508019841693508086168417925050509392505050565b6000819050919050565b6000819050919050565b6000620003ab620003a56200039f8462000376565b62000380565b62000376565b9050919050565b6000819050919050565b620003c7836200038a565b620003df620003d682620003b2565b84845462000320565b825550505050565b600090565b620003f6620003e7565b62000403818484620003bc565b505050565b5b818110156200042b576200041f600082620003ec565b60018101905062000409565b5050565b601f8211156200047a576200044481620002ee565b6200044f8462000303565b810160208510156200045f578190505b620004776200046e8562000303565b83018262000408565b50505b505050565b600082821c905092915050565b60006200049f600019846008026200047f565b1980831691505092915050565b6000620004ba83836200048c565b9150826002028217905092915050565b620004d5826200027f565b67ffffffffffffffff811115620004f157620004f062000096565b5b620004fd8254620002b9565b6200050a8282856200042f565b600060209050601f8311600181146200054257600084156200052d578287015190505b620005398582620004ac565b865550620005a9565b601f1984166200055286620002ee565b60005b828110156200057c5784890151825560018201915060208501945060208101905062000555565b868310156200059c578489015162000598601f8916826200048c565b8355505b6001600288020188555050505b505050505050565b610fe680620005c16000396000f3fe608060405234801561001057600080fd5b50600436106100885760003560e01c80636352211e1161005b5780636352211e1461012957806370a08231146101595780639264a1691461018957806395d89b41146101a557610088565b806306fdde031461008d57806318160ddd146100ab5780632f745c59146100c95780634f6ccce7146100f9575b600080fd5b6100956101c3565b6040516100a29190610902565b60405180910390f35b6100b3610255565b6040516100c0919061093d565b60405180910390f35b6100e360048036038101906100de91906109e7565b610262565b6040516100f0919061093d565b60405180910390f35b610113600480360381019061010e9190610a27565b610312565b604051610120919061093d565b60405180910390f35b610143600480360381019061013e9190610a27565b610381565b6040516101509190610a63565b60405180910390f35b610173600480360381019061016e9190610a7e565b6104d4565b604051610180919061093d565b60405180910390f35b6101a3600480360381019061019e9190610aab565b61058b565b005b6101ad61059b565b6040516101ba9190610902565b60405180910390f35b6060600080546101d290610b2d565b80601f01602080910402602001604051908101604052809291908181526020018280546101fe90610b2d565b801561024b5780601f106102205761010080835404028352916020019161024b565b820191906000526020600020905b81548152906001019060200180831161022e57829003601f168201915b5050505050905090565b6000600580549050905090565b600061026d836104d4565b82106102ae576040517f08c379a00000000000000000000000000000000000000000000000000000000081526004016102a590610baa565b60405180910390fd5b600760008473ffffffffffffffffffffffffffffffffffffffff1673ffffffffffffffffffffffffffffffffffffffff16815260200190815260200160002082815481106102ff576102fe610bca565b5b9060005260206000200154905092915050565b6000600580549050821061035b576040517f08c379a000000000000000000000000000000000000000000000000000000000815260040161035290610c45565b60405180910390fd5b6005828154811061036f5761036e610bca565b5b90600052602060002001549050919050565b6000806002600084815260200190815260200160002060009054906101000a900473ffffffffffffffffffffffffffffffffffffffff169050600073ffffffffffffffffffffffffffffffffffffffff168173ffffffffffffffffffffffffffffffffffffffff1603610429576040517f08c379a000000000000000000000000000000000000000000000000000000000815260040161042090610cd7565b60405180910390fd5b600073ffffffffffffffffffffffffffffffffffffffff166002600085815260200190815260200160002060009054906101000a900473ffffffffffffffffffffffffffffffffffffffff1673ffffffffffffffffffffffffffffffffffffffff16036104cb576040517f08c379a00000000000000000000000000000000000000000000000000000000081526004016104c290610d43565b60405180910390fd5b80915050919050565b60008073ffffffffffffffffffffffffffffffffffffffff168273ffffffffffffffffffffffffffffffffffffffff1603610544576040517f08c379a000000000000000000000000000000000000000000000000000000000815260040161053b90610dd5565b60405180910390fd5b600360008373ffffffffffffffffffffffffffffffffffffffff1673ffffffffffffffffffffffffffffffffffffffff168152602001908152602001600020549050919050565b61059683838361062d565b505050565b6060600180546105aa90610b2d565b80601f01602080910402602001604051908101604052809291908181526020018280546105d690610b2d565b80156106235780601f106105f857610100808354040283529160200191610623565b820191906000526020600020905b81548152906001019060200180831161060657829003601f168201915b5050505050905090565b600073ffffffffffffffffffffffffffffffffffffffff168273ffffffffffffffffffffffffffffffffffffffff160361069c576040517f08c379a000000000000000000000000000000000000000000000000000000000815260040161069390610e67565b60405180910390fd5b8273ffffffffffffffffffffffffffffffffffffffff166106bc82610381565b73ffffffffffffffffffffffffffffffffffffffff1614610712576040517f08c379a000000000000000000000000000000000000000000000000000000000815260040161070990610ef9565b60405180910390fd5b6001600360008573ffffffffffffffffffffffffffffffffffffffff1673ffffffffffffffffffffffffffffffffffffffff16815260200190815260200160002060008282546107629190610f48565b925050819055506001600360008473ffffffffffffffffffffffffffffffffffffffff1673ffffffffffffffffffffffffffffffffffffffff16815260200190815260200160002060008282546107b99190610f7c565b92505081905550816002600083815260200190815260200160002060006101000a81548173ffffffffffffffffffffffffffffffffffffffff021916908373ffffffffffffffffffffffffffffffffffffffff160217905550808273ffffffffffffffffffffffffffffffffffffffff168473ffffffffffffffffffffffffffffffffffffffff167fddf252ad1be2c89b69c2b068fc378daa952ba7f163c4a11628f55a4df523b3ef60405160405180910390a4505050565b600081519050919050565b600082825260208201905092915050565b60005b838110156108ac578082015181840152602081019050610891565b60008484015250505050565b6000601f19601f8301169050919050565b60006108d482610872565b6108de818561087d565b93506108ee81856020860161088e565b6108f7816108b8565b840191505092915050565b6000602082019050818103600083015261091c81846108c9565b905092915050565b6000819050919050565b61093781610924565b82525050565b6000602082019050610952600083018461092e565b92915050565b600080fd5b600073ffffffffffffffffffffffffffffffffffffffff82169050919050565b60006109888261095d565b9050919050565b6109988161097d565b81146109a357600080fd5b50565b6000813590506109b58161098f565b92915050565b6109c481610924565b81146109cf57600080fd5b50565b6000813590506109e1816109bb565b92915050565b600080604083850312156109fe576109fd610958565b5b6000610a0c858286016109a6565b9250506020610a1d858286016109d2565b9150509250929050565b600060208284031215610a3d57610a3c610958565b5b6000610a4b848285016109d2565b91505092915050565b610a5d8161097d565b82525050565b6000602082019050610a786000830184610a54565b92915050565b600060208284031215610a9457610a93610958565b5b6000610aa2848285016109a6565b91505092915050565b600080600060608486031215610ac457610ac3610958565b5b6000610ad2868287016109a6565b9350506020610ae3868287016109a6565b9250506040610af4868287016109d2565b9150509250925092565b7f4e487b7100000000000000000000000000000000000000000000000000000000600052602260045260246000fd5b60006002820490506001821680610b4557607f821691505b602082108103610b5857610b57610afe565b5b50919050565b7f4f776e657220696e646578206973206f7574206f6620626f756e647321000000600082015250565b6000610b94601d8361087d565b9150610b9f82610b5e565b602082019050919050565b60006020820190508181036000830152610bc381610b87565b9050919050565b7f4e487b7100000000000000000000000000000000000000000000000000000000600052603260045260246000fd5b7f476c6f62616c20696e646578206973206f7574206f6620626f756e6473210000600082015250565b6000610c2f601e8361087d565b9150610c3a82610bf9565b602082019050919050565b60006020820190508181036000830152610c5e81610c22565b9050919050565b7f4552433732313a206f776e657220717565727920666f72206e6f6e206578697360008201527f74656e7420746f6b656e00000000000000000000000000000000000000000000602082015250565b6000610cc1602a8361087d565b9150610ccc82610c65565b604082019050919050565b60006020820190508181036000830152610cf081610cb4565b9050919050565b7f4552433732313a204e6f6e206578697374656e7420746f6b656e000000000000600082015250565b6000610d2d601a8361087d565b9150610d3882610cf7565b602082019050919050565b60006020820190508181036000830152610d5c81610d20565b9050919050565b7f4552433732313a20746f6b656e20717565727920666f72206e6f6e206578697360008201527f74656e74206f776e657200000000000000000000000000000000000000000000602082015250565b6000610dbf602a8361087d565b9150610dca82610d63565b604082019050919050565b60006020820190508181036000830152610dee81610db2565b9050919050565b7f455243373231205472616e7366657220746f20746865207a65726f206164647260008201527f6573730000000000000000000000000000000000000000000000000000000000602082015250565b6000610e5160238361087d565b9150610e5c82610df5565b604082019050919050565b60006020820190508181036000830152610e8081610e44565b9050919050565b7f4552433732313a20547279696e6720746f207472616e73676572206120746f6b60008201527f656e2020746865206164647265737320646f6573206e6f74206f776e20210000602082015250565b6000610ee3603e8361087d565b9150610eee82610e87565b604082019050919050565b60006020820190508181036000830152610f1281610ed6565b9050919050565b7f4e487b7100000000000000000000000000000000000000000000000000000000600052601160045260246000fd5b6000610f5382610924565b9150610f5e83610924565b9250828203905081811115610f7657610f75610f19565b5b92915050565b6000610f8782610924565b9150610f9283610924565b9250828201905080821115610faa57610fa9610f19565b5b9291505056fea26469706673582212205bd7298b96b8b6f409c1f59b30fdf3627e7b01fd8ef1f36a79d9e9f6826a3b9f64736f6c63430008130033",
  "immutableReferences": {},
  "source": "// SPDX-License-Identifier: MIT\npragma solidity ^0.8.0;\n\nimport './ERC721Metadata.sol';\nimport './ERC721Enumerable.sol';\n\ncontract ERC721Connector is ERC721Metadata, ERC721Enumerable {\n\n    // We deploy connector right away \n    // We want to carry the metadata info over\n\n    constructor(string memory name, string memory symbol) ERC721Metadata(name, symbol) {\n        \n    }\n\n}",
  "sourcePath": "/home/marie-lou/Desktop/crypto-birdz/src/contracts/ERC721Connector.sol",
  "compiler": {
    "name": "solc",
    "version": "0.8.19+commit.7dd6d404.Emscripten.clang"
  },
  "schemaVersion": "3.4.12",
  "updatedAt": "2023-02-28T12:42:34.779Z",
  "devdoc": {
    "kind": "dev",
    "methods": {
      "balanceOf(address)": {
        "params": {
          "_owner": "An address for whom to query the balance "
        },
        "returns": {
          "_0": "The number of NFTs owned by `_owner`, possibly zero"
        }
      },
      "ownerOf(uint256)": {
        "details": "NFTs assigned to zero address are considered invalid and queries about them do throw",
        "params": {
          "_tokenId": "The identifier for an NFT"
        },
        "returns": {
          "_0": "The address of the owner of the NFT"
        }
      },
      "tokenByIndex(uint256)": {
        "details": "Throws if `_index` >= `totalSupply()`",
        "params": {
          "_index": "A counter less than `totalSupply()`"
        },
        "returns": {
          "_0": "The token identifier for the `_index`th NFT, (sort order not specified)"
        }
      },
      "tokenOfOwnerByIndex(address,uint256)": {
        "details": "Throws if `_index` >= `balanceOf(_owner)` or if `_owner` is the zero address, representing invalid NFTs.",
        "params": {
          "_index": "A counter less than `balanceOf(_owner)`",
          "_owner": "An address where we are interested in NFTs owner"
        },
        "returns": {
          "_0": "The token identifier for the `_index`th NFT assigned  (sort order not specified)"
        }
      },
      "totalSupply()": {
        "returns": {
          "_0": "A count of valid NFTs tracked by this contract,  where each of them has an assigned and queryable owner"
        }
      }
    },
    "version": 1
  },
  "userdoc": {
    "kind": "user",
    "methods": {
      "ownerOf(uint256)": {
        "notice": "Find the owner of an NFT"
      },
      "tokenByIndex(uint256)": {
        "notice": "Enumerate valid NFTs"
      },
      "tokenOfOwnerByIndex(address,uint256)": {
        "notice": "Enumerate NFTs assigne to an owner"
      },
      "totalSupply()": {
        "notice": "Count NFTs tracked by this contract"
      }
    },
    "version": 1
  }
}