{
  "contractName": "ERC721",
  "abi": [
    {
      "anonymous": false,
      "inputs": [
        {
          "indexed": true,
          "internalType": "address",
          "name": "_owner",
          "type": "address"
        },
        {
          "indexed": true,
          "internalType": "address",
          "name": "_approved",
          "type": "address"
        },
        {
          "indexed": true,
          "internalType": "uint256",
          "name": "_tokenId",
          "type": "uint256"
        }
      ],
      "name": "Approval",
      "type": "event"
    },
    {
      "anonymous": false,
      "inputs": [
        {
          "indexed": true,
          "internalType": "address",
          "name": "_owner",
          "type": "address"
        },
        {
          "indexed": true,
          "internalType": "address",
          "name": "_operator",
          "type": "address"
        },
        {
          "indexed": false,
          "internalType": "bool",
          "name": "_approved",
          "type": "bool"
        }
      ],
      "name": "ApprovalForAll",
      "type": "event"
    },
    {
      "anonymous": false,
      "inputs": [
        {
          "indexed": true,
          "internalType": "address",
          "name": "_from",
          "type": "address"
        },
        {
          "indexed": true,
          "internalType": "address",
          "name": "_to",
          "type": "address"
        },
        {
          "indexed": true,
          "internalType": "uint256",
          "name": "_tokenId",
          "type": "uint256"
        }
      ],
      "name": "Transfer",
      "type": "event"
    },
    {
      "inputs": [
        {
          "internalType": "bytes4",
          "name": "interfaceID",
          "type": "bytes4"
        }
      ],
      "name": "supportsInterface",
      "outputs": [
        {
          "internalType": "bool",
          "name": "",
          "type": "bool"
        }
      ],
      "stateMutability": "view",
      "type": "function"
    },
    {
      "inputs": [
        {
          "internalType": "address",
          "name": "_owner",
          "type": "address"
        }
      ],
      "name": "balanceOf",
      "outputs": [
        {
          "internalType": "uint256",
          "name": "",
          "type": "uint256"
        }
      ],
      "stateMutability": "view",
      "type": "function"
    },
    {
      "inputs": [
        {
          "internalType": "uint256",
          "name": "_tokenId",
          "type": "uint256"
        }
      ],
      "name": "ownerOf",
      "outputs": [
        {
          "internalType": "address",
          "name": "",
          "type": "address"
        }
      ],
      "stateMutability": "view",
      "type": "function"
    },
    {
      "inputs": [
        {
          "internalType": "address",
          "name": "_from",
          "type": "address"
        },
        {
          "internalType": "address",
          "name": "_to",
          "type": "address"
        },
        {
          "internalType": "uint256",
          "name": "_tokenId",
          "type": "uint256"
        }
      ],
      "name": "transferFrom",
      "outputs": [],
      "stateMutability": "nonpayable",
      "type": "function"
    },
    {
      "inputs": [
        {
          "internalType": "address",
          "name": "_to",
          "type": "address"
        },
        {
          "internalType": "uint256",
          "name": "_tokenId",
          "type": "uint256"
        }
      ],
      "name": "approve",
      "outputs": [],
      "stateMutability": "nonpayable",
      "type": "function"
    },
    {
      "inputs": [
        {
          "internalType": "address",
          "name": "_operator",
          "type": "address"
        },
        {
          "internalType": "bool",
          "name": "_approved",
          "type": "bool"
        }
      ],
      "name": "setApprovalForAll",
      "outputs": [],
      "stateMutability": "nonpayable",
      "type": "function"
    },
    {
      "inputs": [
        {
          "internalType": "uint256",
          "name": "_tokenId",
          "type": "uint256"
        }
      ],
      "name": "getApproved",
      "outputs": [
        {
          "internalType": "address",
          "name": "",
          "type": "address"
        }
      ],
      "stateMutability": "view",
      "type": "function"
    },
    {
      "inputs": [
        {
          "internalType": "address",
          "name": "_owner",
          "type": "address"
        },
        {
          "internalType": "address",
          "name": "_operator",
          "type": "address"
        }
      ],
      "name": "isApprovedForAll",
      "outputs": [
        {
          "internalType": "bool",
          "name": "",
          "type": "bool"
        }
      ],
      "stateMutability": "view",
      "type": "function"
    }
  ],
  "bytecode": "0x60806040523480156200001157600080fd5b50620000437f01ffc9a7a5cef8baa21ed3c5c0d7e23accb804b619e9333b597f47a0d84076e26200004960201b60201c565b620001c9565b63ffffffff60e01b817bffffffffffffffffffffffffffffffffffffffffffffffffffffffff191603620000b4576040517f08c379a0000000000000000000000000000000000000000000000000000000008152600401620000ab90620001a7565b60405180910390fd5b6001600080837bffffffffffffffffffffffffffffffffffffffffffffffffffffffff19167bffffffffffffffffffffffffffffffffffffffffffffffffffffffff1916815260200190815260200160002060006101000a81548160ff02191690831515021790555050565b600082825260208201905092915050565b7f455243313635202d20496e76616c696420696e7465726661636520726571756560008201527f7374000000000000000000000000000000000000000000000000000000000000602082015250565b60006200018f60228362000120565b91506200019c8262000131565b604082019050919050565b60006020820190508181036000830152620001c28162000180565b9050919050565b6114cf80620001d96000396000f3fe608060405234801561001057600080fd5b50600436106100885760003560e01c80636352211e1161005b5780636352211e1461012557806370a0823114610155578063a22cb46514610185578063e985e9c5146101a157610088565b806301ffc9a71461008d578063081812fc146100bd578063095ea7b3146100ed57806323b872dd14610109575b600080fd5b6100a760048036038101906100a29190610cc9565b6101d1565b6040516100b49190610d11565b60405180910390f35b6100d760048036038101906100d29190610d62565b610238565b6040516100e49190610dd0565b60405180910390f35b61010760048036038101906101029190610e17565b6102bd565b005b610123600480360381019061011e9190610e57565b610433565b005b61013f600480360381019061013a9190610d62565b610443565b60405161014c9190610dd0565b60405180910390f35b61016f600480360381019061016a9190610eaa565b610521565b60405161017c9190610ee6565b60405180910390f35b61019f600480360381019061019a9190610f2d565b6105d8565b005b6101bb60048036038101906101b69190610f6d565b610743565b6040516101c89190610d11565b60405180910390f35b6000806000837bffffffffffffffffffffffffffffffffffffffffffffffffffffffff19167bffffffffffffffffffffffffffffffffffffffffffffffffffffffff1916815260200190815260200160002060009054906101000a900460ff169050919050565b6000610243826107d7565b610282576040517f08c379a00000000000000000000000000000000000000000000000000000000081526004016102799061100a565b60405180910390fd5b6003600083815260200190815260200160002060009054906101000a900473ffffffffffffffffffffffffffffffffffffffff169050919050565b60006102c882610443565b90506102d43383610849565b610313576040517f08c379a000000000000000000000000000000000000000000000000000000000815260040161030a906110c2565b60405180910390fd5b8073ffffffffffffffffffffffffffffffffffffffff168373ffffffffffffffffffffffffffffffffffffffff1603610381576040517f08c379a000000000000000000000000000000000000000000000000000000000815260040161037890611154565b60405180910390fd5b826003600084815260200190815260200160002060006101000a81548173ffffffffffffffffffffffffffffffffffffffff021916908373ffffffffffffffffffffffffffffffffffffffff160217905550818373ffffffffffffffffffffffffffffffffffffffff168273ffffffffffffffffffffffffffffffffffffffff167f8c5be1e5ebec7d5bd14f71427d1e84f3dd0314c0f7b2291e5b200ac8c7c3b92560405160405180910390a4505050565b61043e838383610976565b505050565b60008073ffffffffffffffffffffffffffffffffffffffff166001600084815260200190815260200160002060009054906101000a900473ffffffffffffffffffffffffffffffffffffffff1673ffffffffffffffffffffffffffffffffffffffff16036104e6576040517f08c379a00000000000000000000000000000000000000000000000000000000081526004016104dd906111c0565b60405180910390fd5b6001600083815260200190815260200160002060009054906101000a900473ffffffffffffffffffffffffffffffffffffffff169050919050565b60008073ffffffffffffffffffffffffffffffffffffffff168273ffffffffffffffffffffffffffffffffffffffff1603610591576040517f08c379a000000000000000000000000000000000000000000000000000000000815260040161058890611252565b60405180910390fd5b600260008373ffffffffffffffffffffffffffffffffffffffff1673ffffffffffffffffffffffffffffffffffffffff168152602001908152602001600020549050919050565b3373ffffffffffffffffffffffffffffffffffffffff168273ffffffffffffffffffffffffffffffffffffffff1603610646576040517f08c379a000000000000000000000000000000000000000000000000000000000815260040161063d906112be565b60405180910390fd5b80600460003373ffffffffffffffffffffffffffffffffffffffff1673ffffffffffffffffffffffffffffffffffffffff16815260200190815260200160002060008473ffffffffffffffffffffffffffffffffffffffff1673ffffffffffffffffffffffffffffffffffffffff16815260200190815260200160002060006101000a81548160ff0219169083151502179055508173ffffffffffffffffffffffffffffffffffffffff163373ffffffffffffffffffffffffffffffffffffffff167f17307eab39ab6107e8899845ad3d59bd9653f200f220920489ca2b5937696c31836040516107379190610d11565b60405180910390a35050565b6000600460008473ffffffffffffffffffffffffffffffffffffffff1673ffffffffffffffffffffffffffffffffffffffff16815260200190815260200160002060008373ffffffffffffffffffffffffffffffffffffffff1673ffffffffffffffffffffffffffffffffffffffff16815260200190815260200160002060009054906101000a900460ff16905092915050565b6000806001600084815260200190815260200160002060009054906101000a900473ffffffffffffffffffffffffffffffffffffffff169050600073ffffffffffffffffffffffffffffffffffffffff168173ffffffffffffffffffffffffffffffffffffffff161415915050919050565b6000610854826107d7565b610893576040517f08c379a000000000000000000000000000000000000000000000000000000000815260040161088a9061100a565b60405180910390fd5b600061089e83610443565b90506000600460008373ffffffffffffffffffffffffffffffffffffffff1673ffffffffffffffffffffffffffffffffffffffff16815260200190815260200160002060008673ffffffffffffffffffffffffffffffffffffffff1673ffffffffffffffffffffffffffffffffffffffff16815260200190815260200160002060009054906101000a900460ff1690508173ffffffffffffffffffffffffffffffffffffffff168573ffffffffffffffffffffffffffffffffffffffff16148061096c575060011515811515145b9250505092915050565b6109803382610849565b61098957600080fd5b600073ffffffffffffffffffffffffffffffffffffffff168273ffffffffffffffffffffffffffffffffffffffff16036109f8576040517f08c379a00000000000000000000000000000000000000000000000000000000081526004016109ef90611350565b60405180910390fd5b8273ffffffffffffffffffffffffffffffffffffffff16610a1882610443565b73ffffffffffffffffffffffffffffffffffffffff1614610a6e576040517f08c379a0000000000000000000000000000000000000000000000000000000008152600401610a65906113e2565b60405180910390fd5b6001600260008573ffffffffffffffffffffffffffffffffffffffff1673ffffffffffffffffffffffffffffffffffffffff1681526020019081526020016000206000828254610abe9190611431565b925050819055506001600260008473ffffffffffffffffffffffffffffffffffffffff1673ffffffffffffffffffffffffffffffffffffffff1681526020019081526020016000206000828254610b159190611465565b92505081905550816001600083815260200190815260200160002060006101000a81548173ffffffffffffffffffffffffffffffffffffffff021916908373ffffffffffffffffffffffffffffffffffffffff160217905550600073ffffffffffffffffffffffffffffffffffffffff166003600083815260200190815260200160002060009054906101000a900473ffffffffffffffffffffffffffffffffffffffff1673ffffffffffffffffffffffffffffffffffffffff1614610c0c576003600082815260200190815260200160002060006101000a81549073ffffffffffffffffffffffffffffffffffffffff02191690555b808273ffffffffffffffffffffffffffffffffffffffff168473ffffffffffffffffffffffffffffffffffffffff167fddf252ad1be2c89b69c2b068fc378daa952ba7f163c4a11628f55a4df523b3ef60405160405180910390a4505050565b600080fd5b60007fffffffff0000000000000000000000000000000000000000000000000000000082169050919050565b610ca681610c71565b8114610cb157600080fd5b50565b600081359050610cc381610c9d565b92915050565b600060208284031215610cdf57610cde610c6c565b5b6000610ced84828501610cb4565b91505092915050565b60008115159050919050565b610d0b81610cf6565b82525050565b6000602082019050610d266000830184610d02565b92915050565b6000819050919050565b610d3f81610d2c565b8114610d4a57600080fd5b50565b600081359050610d5c81610d36565b92915050565b600060208284031215610d7857610d77610c6c565b5b6000610d8684828501610d4d565b91505092915050565b600073ffffffffffffffffffffffffffffffffffffffff82169050919050565b6000610dba82610d8f565b9050919050565b610dca81610daf565b82525050565b6000602082019050610de56000830184610dc1565b92915050565b610df481610daf565b8114610dff57600080fd5b50565b600081359050610e1181610deb565b92915050565b60008060408385031215610e2e57610e2d610c6c565b5b6000610e3c85828601610e02565b9250506020610e4d85828601610d4d565b9150509250929050565b600080600060608486031215610e7057610e6f610c6c565b5b6000610e7e86828701610e02565b9350506020610e8f86828701610e02565b9250506040610ea086828701610d4d565b9150509250925092565b600060208284031215610ec057610ebf610c6c565b5b6000610ece84828501610e02565b91505092915050565b610ee081610d2c565b82525050565b6000602082019050610efb6000830184610ed7565b92915050565b610f0a81610cf6565b8114610f1557600080fd5b50565b600081359050610f2781610f01565b92915050565b60008060408385031215610f4457610f43610c6c565b5b6000610f5285828601610e02565b9250506020610f6385828601610f18565b9150509250929050565b60008060408385031215610f8457610f83610c6c565b5b6000610f9285828601610e02565b9250506020610fa385828601610e02565b9150509250929050565b600082825260208201905092915050565b7f546f6b656e20646f6573206e6f74206578697374000000000000000000000000600082015250565b6000610ff4601483610fad565b9150610fff82610fbe565b602082019050919050565b6000602082019050818103600083015261102381610fe7565b9050919050565b7f455243373231202d20617070726f766572202863757272656e742063616c6c6560008201527f7229206973206e6f7420746865206f776e6572206f662074686520746f6b656e60208201527f206e65697468657220616e20617574686f72697a6564206f70657261746f7200604082015250565b60006110ac605f83610fad565b91506110b78261102a565b606082019050919050565b600060208201905081810360008301526110db8161109f565b9050919050565b7f455243373231202d2073656e64696e6720746f6b656e20746f2074686520637560008201527f7272656e74206f776e6572000000000000000000000000000000000000000000602082015250565b600061113e602b83610fad565b9150611149826110e2565b604082019050919050565b6000602082019050818103600083015261116d81611131565b9050919050565b7f4552433732313a204e6f6e206578697374656e7420746f6b656e000000000000600082015250565b60006111aa601a83610fad565b91506111b582611174565b602082019050919050565b600060208201905081810360008301526111d98161119d565b9050919050565b7f4552433732313a20746f6b656e20717565727920666f72206e6f6e206578697360008201527f74656e74206f776e657200000000000000000000000000000000000000000000602082015250565b600061123c602a83610fad565b9150611247826111e0565b604082019050919050565b6000602082019050818103600083015261126b8161122f565b9050919050565b7f45524320373231202d20417070726f766520746f2063616c6c65720000000000600082015250565b60006112a8601b83610fad565b91506112b382611272565b602082019050919050565b600060208201905081810360008301526112d78161129b565b9050919050565b7f455243373231205472616e7366657220746f20746865207a65726f206164647260008201527f6573730000000000000000000000000000000000000000000000000000000000602082015250565b600061133a602383610fad565b9150611345826112de565b604082019050919050565b600060208201905081810360008301526113698161132d565b9050919050565b7f4552433732313a20547279696e6720746f207472616e73666572206120746f6b60008201527f656e20746865206164647265737320646f6573206e6f74206f776e2021000000602082015250565b60006113cc603d83610fad565b91506113d782611370565b604082019050919050565b600060208201905081810360008301526113fb816113bf565b9050919050565b7f4e487b7100000000000000000000000000000000000000000000000000000000600052601160045260246000fd5b600061143c82610d2c565b915061144783610d2c565b925082820390508181111561145f5761145e611402565b5b92915050565b600061147082610d2c565b915061147b83610d2c565b925082820190508082111561149357611492611402565b5b9291505056fea2646970667358221220f42ee2f0d8b44815b45d4a3e49b6090df441954d4c389cca64c2d436ed17d98664736f6c63430008130033",
  "immutableReferences": {},
  "source": "// SPDX-License-Identifier: MIT\npragma solidity ^0.8.0;\n\nimport './ERC165.sol';\n// import './ERC721TokenReceiver.sol';\nimport './interfaces/IERC721.sol';\n\n\n\ncontract ERC721 is ERC165, IERC721 {\n\n    // Mapping from token id to the owner\n    mapping(uint256 => address) private _tokenOwner;\n\n    // Mapping from owner to number owned token\n    mapping(address => uint256) private _ownedTokenCount;\n\n    // Mapping from token id to approved addresses\n    mapping(uint256 => address) private _tokenApprovals;\n\n    // Mapping from owner address to mapping of operator address to bool \n    // If true, owner allows operator to manage NFT\n    mapping(address => mapping(address => bool)) private _operatorApprovals;\n\n\n\n    /// @notice Check if the tokenIf exists\n    /// @dev assign to `ower` the address of owner of the `tokenId` (`_tokenOwner`)\n    /// @return bool, truthiness if the owner address is not 0 \n    /// which means that the NFT has alreadu been minted as it's assign to a valid address\n    function _exists(uint256 tokenId) internal view returns(bool) {\n        address owner = _tokenOwner[tokenId];\n        return owner != address(0);\n    }\n\n    function isApprovedOrOWner(address _spender, uint256 _tokenId) internal view returns(bool) {\n        require(_exists(_tokenId), 'Token does not exist');\n        address owner = ownerOf(_tokenId);\n        bool operatorAllowance = _operatorApprovals[owner][_spender];\n        return(_spender == owner || operatorAllowance == true);\n    }\n\n\n    /// @notice Count all NFTs assigned to an owner\n    /// @dev NFTs assigned to the zero address are considered invalid\n    // function throw for queries about the zero address\n    /// @param _owner An address for whom to query the balance \n    /// @return The number of NFTs owned by `_owner`, possibly zero\n    function balanceOf(address _owner) public override view returns(uint256) {\n        require(_owner != address(0), 'ERC721: token query for non existent owner');\n        return _ownedTokenCount[_owner];\n    }\n\n    \n    /// @notice Find the owner of an NFT\n    /// @dev NFTs assigned to zero address are considered invalid\n    /// and queries about them do throw\n    /// @param _tokenId The identifier for an NFT\n    /// @return The address of the owner of the NFT\n    function ownerOf(uint _tokenId) public override view returns(address) {\n        require(_tokenOwner[_tokenId] != address(0), 'ERC721: Non existent token');\n        return _tokenOwner[_tokenId];\n    }\n\n    /* \n        Building out the minting function:\n            a. NFT to point to an address\n            b. Keep track of the token ids\n            c. keep track of the token owner addresses to token ids\n            d. Keep track of how many tokens an owner address has\n            e. Create an event that emits a transfer log - contract addresses where it is being minted to, the id\n    */\n    function _mint(address to, uint256 tokenId) internal virtual {\n        // Requires that the address isn't zero\n        require(to != address(0), 'ERC721: minting to the zero address');\n\n        // Requires that the token hadn't already been minted \n        // (by calling the function exists that we created above)\n\n        require(!_exists(tokenId), 'ERC721: token already minted');\n        // We are adding a new address with a token id for minting\n        _tokenOwner[tokenId] = to;\n\n        // We're keeping track of each address that is minting \n        // and adding one to the count\n        _ownedTokenCount[to] += 1;\n\n        emit Transfer(address(0), to, tokenId);\n    }\n\n\n    // The purpose of the transferFrom functions is to manage the resale purchase \n    // of an NFT AFTER it has been minted\n    /// @notice Transfer ownership of an NFT -- THE CALLER IS RESPONSIBLE\n    /// TO CONFIRM THAT `_to` IS CAPABLE OF RECEIVING NFTs OR ELSE\n    /// THEY MAY BE PERMANENTLY LOST\n    /// @dev Throws unless `msg.sender` is the current owner, an aythorized\n    /// operator, or the approved address for this NFT. Throw if `_from` is\n    /// not the current owner. Throws if `_to` is the zero address. Throws if\n    /// `_tokenId` is not a valid NFT.\n    /// @param _from The current owner of the NFT\n    /// @param _to The new owner\n    /// @param _tokenId The NFT to transfer\n    function _transferFrom(address _from, address _to, uint256 _tokenId) internal {\n\n        /// rows unless `msg.sender` is the current owner, an authorized\n        /// operator, or the approved address for this NFT.\n        /// Throws if `_tokenId` is not a valid NFT.\n        require(isApprovedOrOWner(msg.sender, _tokenId));\n\n        // Throws if `_to` is the zero address.\n        require(_to != address(0), 'ERC721 Transfer to the zero address');\n\n        /// Throw if `_from` is not the current owner.\n        require(ownerOf(_tokenId) == _from, 'ERC721: Trying to transfer a token the address does not own !');\n\n        // Update the balance of the address `_from`\n        _ownedTokenCount[_from] -= 1;\n\n        // Update the balance of the address `_to`\n        _ownedTokenCount[_to] += 1;\n\n        // Add the `_tokenId` to the address receiving `_to` - which receive the token\n        _tokenOwner[_tokenId] = _to;\n\n        if(_tokenApprovals[_tokenId] != address(0)){\n           delete _tokenApprovals[_tokenId];\n        }\n\n        emit Transfer(_from, _to, _tokenId);\n    }\n\n    function transferFrom(address _from, address _to, uint256 _tokenId) override public {\n        _transferFrom(_from, _to, _tokenId);\n    }\n\n\n    /*\n    @notice Transfers the ownership of an NFT from one address to another address\n    @dev This works identically to the other function with an extra data parameter,\n     except this function just sets data to \"\".\n    @param _from The current owner of the NFT\n    @param _to The new owner\n    @param _tokenId The NFT to transfer\n    function safeTransferFrom(address _from, address _to, uint256 _tokenId, bytes4 data) public {\n        transferFrom(_from, _to, _tokenId);\n        uint32 size;\n        assembly {\n            size := extcodesize(_to)\n        }\n        if(size > 0) {\n            ERC721TokenReceiver receiver = ERC721TokenReceiver(_to);\n            require(receiver.onERC721Received(msg.sender, _from, _tokenId, data)\n                    ==\n                    bytes4(keccak256(\"onERC721Received(address, address, uint256, bytes4)\"))\n                    )\n            ;\n        }\n    }\n\n    function safeTransferFrom(address _from, address _to, uint256 _tokenId) external {\n        safeTransferFrom(_from,_to,_tokenId,\"\");\n    }\n    */\n\n    /// @notice Change or reaffirm the approved address for an NFT\n    /// @dev The zero address indicates there is no approved address.\n    ///  Throws unless `msg.sender` is the current NFT owner, or an authorized\n    ///  operator of the current owner.\n    /// @param _to The new approved NFT controller\n    /// @param _tokenId The NFT to approve\n    function approve(address _to, uint256 _tokenId) override public {\n        address owner = ownerOf(_tokenId);\n\n        // Thorw if the person approving isn't the owner or an authorized operator\n        require( isApprovedOrOWner(msg.sender, _tokenId), 'ERC721 - approver (current caller) is not the owner of the token neither an authorized operator');\n\n        // Throw if `_from` is not the current owner.\n        require(_to != owner, 'ERC721 - sending token to the current owner');\n\n        // Update the map of the approval addresses\n        _tokenApprovals[_tokenId] = _to;\n\n        // Approve an address to a token (_tokenId)\n        emit Approval(owner, _to, _tokenId);\n    }\n\n\n    /// @notice Enable or disable approval for a third party (\"operator\") to manage\n    ///  all of `msg.sender`'s assets\n    /// @dev Emits the ApprovalForAll event. The contract MUST allow\n    ///  multiple operators per owner.\n    /// @param _operator Address to add to the set of authorized operators\n    /// @param _approved True if the operator is approved, false to revoke approval\n    function setApprovalForAll(address _operator, bool _approved) override public {\n        require(_operator != msg.sender, 'ERC 721 - Approve to caller');\n        _operatorApprovals[msg.sender][_operator] = _approved;  \n        emit ApprovalForAll(msg.sender, _operator, _approved);\n    }\n\n\n    /// @notice Get the approved address for a single NFT\n    /// @dev Throws if `_tokenId` is not a valid NFT.\n    /// @param _tokenId The NFT to find the approved address for\n    /// @return The approved address for this NFT, or the zero address if there is none\n    function getApproved(uint256 _tokenId) public override  view returns(address) {\n        require(_exists(_tokenId), 'Token does not exist');\n        return _tokenApprovals[_tokenId];\n    }\n\n\n    /// @notice Query if an address is an authorized operator for another address\n    /// @param _owner The address that owns the NFTs\n    /// @param _operator The address that acts on behalf of the owner\n    /// @return True if `_operator` is an approved operator for `_owner`, false otherwise\n    function isApprovedForAll(address _owner, address _operator) public override view returns(bool) {\n        return _operatorApprovals[_owner][_operator];\n    }\n\n}",
  "sourcePath": "/home/marie-lou/Desktop/chihuahuax/src/contracts/ERC721.sol",
  "compiler": {
    "name": "solc",
    "version": "0.8.19+commit.7dd6d404.Emscripten.clang"
  },
  "schemaVersion": "3.4.12",
  "updatedAt": "2023-03-01T14:48:32.449Z",
  "devdoc": {
    "events": {
      "Approval(address,address,uint256)": {
        "details": "This emits when the approved address for an NFT is changed or  reaffirmed. The zero address indicates there is no approved address.  When a Transfer event emits, this also indicates that the approved  address for that NFT (if any) is reset to none."
      },
      "ApprovalForAll(address,address,bool)": {
        "details": "This emits when an operator is enabled or disabled for an owner.  The operator can manage all NFTs of the owner."
      },
      "Transfer(address,address,uint256)": {
        "details": "This emits when ownership of any NFT changes by any mechanism.  This event emits when NFTs are created (`from` == 0) and destroyed  (`to` == 0). Exception: during contract creation, any number of NFTs  may be created and assigned without emitting Transfer. At the time of  any transfer, the approved address for that NFT (if any) is reset to none."
      }
    },
    "kind": "dev",
    "methods": {
      "approve(address,uint256)": {
        "details": "The zero address indicates there is no approved address.  Throws unless `msg.sender` is the current NFT owner, or an authorized  operator of the current owner.",
        "params": {
          "_to": "The new approved NFT controller",
          "_tokenId": "The NFT to approve"
        }
      },
      "balanceOf(address)": {
        "params": {
          "_owner": "An address for whom to query the balance "
        },
        "returns": {
          "_0": "The number of NFTs owned by `_owner`, possibly zero"
        }
      },
      "getApproved(uint256)": {
        "details": "Throws if `_tokenId` is not a valid NFT.",
        "params": {
          "_tokenId": "The NFT to find the approved address for"
        },
        "returns": {
          "_0": "The approved address for this NFT, or the zero address if there is none"
        }
      },
      "isApprovedForAll(address,address)": {
        "params": {
          "_operator": "The address that acts on behalf of the owner",
          "_owner": "The address that owns the NFTs"
        },
        "returns": {
          "_0": "True if `_operator` is an approved operator for `_owner`, false otherwise"
        }
      },
      "ownerOf(uint256)": {
        "details": "NFTs assigned to zero address are considered invalid and queries about them do throw",
        "params": {
          "_tokenId": "The identifier for an NFT"
        },
        "returns": {
          "_0": "The address of the owner of the NFT"
        }
      },
      "setApprovalForAll(address,bool)": {
        "details": "Emits the ApprovalForAll event. The contract MUST allow  multiple operators per owner.",
        "params": {
          "_approved": "True if the operator is approved, false to revoke approval",
          "_operator": "Address to add to the set of authorized operators"
        }
      },
      "supportsInterface(bytes4)": {
        "details": "Interface inedntification is specified in ERC-165 This function uses less than 30.000 gas.",
        "params": {
          "interfaceID": "the Interface identifier, as specified in ERC-165"
        },
        "returns": {
          "_0": "`true` if the contract implements `interfaceID` and `interfaceID` is not 0xffffffff, `false` otherwise."
        }
      }
    },
    "version": 1
  },
  "userdoc": {
    "kind": "user",
    "methods": {
      "approve(address,uint256)": {
        "notice": "Change or reaffirm the approved address for an NFT"
      },
      "getApproved(uint256)": {
        "notice": "Get the approved address for a single NFT"
      },
      "isApprovedForAll(address,address)": {
        "notice": "Query if an address is an authorized operator for another address"
      },
      "ownerOf(uint256)": {
        "notice": "Find the owner of an NFT"
      },
      "setApprovalForAll(address,bool)": {
        "notice": "Enable or disable approval for a third party (\"operator\") to manage  all of `msg.sender`'s assets"
      },
      "supportsInterface(bytes4)": {
        "notice": "Query if a contract implements an interface"
      }
    },
    "version": 1
  }
}