{
  "contractName": "ERC721",
  "abi": [
    {
      "anonymous": false,
      "inputs": [
        {
          "indexed": true,
          "internalType": "address",
          "name": "from",
          "type": "address"
        },
        {
          "indexed": true,
          "internalType": "address",
          "name": "to",
          "type": "address"
        },
        {
          "indexed": true,
          "internalType": "uint256",
          "name": "tokenId",
          "type": "uint256"
        }
      ],
      "name": "Transfer",
      "type": "event"
    },
    {
      "inputs": [
        {
          "internalType": "address",
          "name": "_owner",
          "type": "address"
        }
      ],
      "name": "balanceOf",
      "outputs": [
        {
          "internalType": "uint256",
          "name": "",
          "type": "uint256"
        }
      ],
      "stateMutability": "view",
      "type": "function"
    },
    {
      "inputs": [
        {
          "internalType": "uint256",
          "name": "_tokenId",
          "type": "uint256"
        }
      ],
      "name": "ownerOf",
      "outputs": [
        {
          "internalType": "address",
          "name": "",
          "type": "address"
        }
      ],
      "stateMutability": "view",
      "type": "function"
    },
    {
      "inputs": [
        {
          "internalType": "address",
          "name": "_from",
          "type": "address"
        },
        {
          "internalType": "address",
          "name": "_to",
          "type": "address"
        },
        {
          "internalType": "uint256",
          "name": "_tokenId",
          "type": "uint256"
        }
      ],
      "name": "tranferFrom",
      "outputs": [],
      "stateMutability": "nonpayable",
      "type": "function"
    }
  ],
  "bytecode": "0x608060405234801561001057600080fd5b50610a48806100206000396000f3fe608060405234801561001057600080fd5b50600436106100415760003560e01c80636352211e1461004657806370a08231146100765780639264a169146100a6575b600080fd5b610060600480360381019061005b9190610557565b6100c2565b60405161006d91906105c5565b60405180910390f35b610090600480360381019061008b919061060c565b610213565b60405161009d9190610648565b60405180910390f35b6100c060048036038101906100bb9190610663565b6102ca565b005b60008060008084815260200190815260200160002060009054906101000a900473ffffffffffffffffffffffffffffffffffffffff169050600073ffffffffffffffffffffffffffffffffffffffff168173ffffffffffffffffffffffffffffffffffffffff1603610169576040517f08c379a000000000000000000000000000000000000000000000000000000000815260040161016090610739565b60405180910390fd5b600073ffffffffffffffffffffffffffffffffffffffff1660008085815260200190815260200160002060009054906101000a900473ffffffffffffffffffffffffffffffffffffffff1673ffffffffffffffffffffffffffffffffffffffff160361020a576040517f08c379a0000000000000000000000000000000000000000000000000000000008152600401610201906107a5565b60405180910390fd5b80915050919050565b60008073ffffffffffffffffffffffffffffffffffffffff168273ffffffffffffffffffffffffffffffffffffffff1603610283576040517f08c379a000000000000000000000000000000000000000000000000000000000815260040161027a90610837565b60405180910390fd5b600160008373ffffffffffffffffffffffffffffffffffffffff1673ffffffffffffffffffffffffffffffffffffffff168152602001908152602001600020549050919050565b6102d58383836102da565b505050565b600073ffffffffffffffffffffffffffffffffffffffff168273ffffffffffffffffffffffffffffffffffffffff1603610349576040517f08c379a0000000000000000000000000000000000000000000000000000000008152600401610340906108c9565b60405180910390fd5b8273ffffffffffffffffffffffffffffffffffffffff16610369826100c2565b73ffffffffffffffffffffffffffffffffffffffff16146103bf576040517f08c379a00000000000000000000000000000000000000000000000000000000081526004016103b69061095b565b60405180910390fd5b60018060008573ffffffffffffffffffffffffffffffffffffffff1673ffffffffffffffffffffffffffffffffffffffff168152602001908152602001600020600082825461040e91906109aa565b9250508190555060018060008473ffffffffffffffffffffffffffffffffffffffff1673ffffffffffffffffffffffffffffffffffffffff168152602001908152602001600020600082825461046491906109de565b925050819055508160008083815260200190815260200160002060006101000a81548173ffffffffffffffffffffffffffffffffffffffff021916908373ffffffffffffffffffffffffffffffffffffffff160217905550808273ffffffffffffffffffffffffffffffffffffffff168473ffffffffffffffffffffffffffffffffffffffff167fddf252ad1be2c89b69c2b068fc378daa952ba7f163c4a11628f55a4df523b3ef60405160405180910390a4505050565b600080fd5b6000819050919050565b61053481610521565b811461053f57600080fd5b50565b6000813590506105518161052b565b92915050565b60006020828403121561056d5761056c61051c565b5b600061057b84828501610542565b91505092915050565b600073ffffffffffffffffffffffffffffffffffffffff82169050919050565b60006105af82610584565b9050919050565b6105bf816105a4565b82525050565b60006020820190506105da60008301846105b6565b92915050565b6105e9816105a4565b81146105f457600080fd5b50565b600081359050610606816105e0565b92915050565b6000602082840312156106225761062161051c565b5b6000610630848285016105f7565b91505092915050565b61064281610521565b82525050565b600060208201905061065d6000830184610639565b92915050565b60008060006060848603121561067c5761067b61051c565b5b600061068a868287016105f7565b935050602061069b868287016105f7565b92505060406106ac86828701610542565b9150509250925092565b600082825260208201905092915050565b7f4552433732313a206f776e657220717565727920666f72206e6f6e206578697360008201527f74656e7420746f6b656e00000000000000000000000000000000000000000000602082015250565b6000610723602a836106b6565b915061072e826106c7565b604082019050919050565b6000602082019050818103600083015261075281610716565b9050919050565b7f4552433732313a204e6f6e206578697374656e7420746f6b656e000000000000600082015250565b600061078f601a836106b6565b915061079a82610759565b602082019050919050565b600060208201905081810360008301526107be81610782565b9050919050565b7f4552433732313a20746f6b656e20717565727920666f72206e6f6e206578697360008201527f74656e74206f776e657200000000000000000000000000000000000000000000602082015250565b6000610821602a836106b6565b915061082c826107c5565b604082019050919050565b6000602082019050818103600083015261085081610814565b9050919050565b7f455243373231205472616e7366657220746f20746865207a65726f206164647260008201527f6573730000000000000000000000000000000000000000000000000000000000602082015250565b60006108b36023836106b6565b91506108be82610857565b604082019050919050565b600060208201905081810360008301526108e2816108a6565b9050919050565b7f4552433732313a20547279696e6720746f207472616e73676572206120746f6b60008201527f656e2020746865206164647265737320646f6573206e6f74206f776e20210000602082015250565b6000610945603e836106b6565b9150610950826108e9565b604082019050919050565b6000602082019050818103600083015261097481610938565b9050919050565b7f4e487b7100000000000000000000000000000000000000000000000000000000600052601160045260246000fd5b60006109b582610521565b91506109c083610521565b92508282039050818111156109d8576109d761097b565b5b92915050565b60006109e982610521565b91506109f483610521565b9250828201905080821115610a0c57610a0b61097b565b5b9291505056fea2646970667358221220b4edbd67aab31c656d95a5f9a3f908f18e3fe354b6b61fc0a152d35690a85a5864736f6c63430008130033",
  "immutableReferences": {},
  "source": "// SPDX-License-Identifier: MIT\npragma solidity ^0.8.0;\n\n/* \n\n    All the strandards ERC721: https://eips.ethereum.org/EIPS/eip-721\n\n    Building out the minting function:\n        a. NFT to point to an address\n        b. Keep track of the token ids\n        c. keep track of the token owner addresses to token ids\n        d. Keep track of how many tokens an owner address has\n        e. Create an event that emits a transfer log - contract addresses where it is being minted to, the id\n\n*/\n\ncontract ERC721 {\n\n    event Transfer(\n        address indexed from, \n        address indexed to, \n        uint256 indexed tokenId\n    ); \n\n\n    // Mapping in solidity creates a hash table of key pair values\n\n    // Mapping from token id to the owner\n    mapping(uint256 => address) private _tokenOwner;\n\n    // Mapping from owner to number owned token\n    mapping(address => uint256) private _ownedTokenCount;\n\n    // Mapping from token id to approved addresses\n    mapping(uint256 => address) private _tokenApprovals;\n\n\n\n    // function _exists(uint256 tokenId) internal view returns(bool) {\n\n    //     // Setting the address of NFT owner to check the mapping\n    //     // of the address from tokenOwner at the tokenId\n    //     address owner = _tokenOwner[tokenId];\n\n    //     // Return truthiness that address isn't 0\n    //     return owner != address(0);\n\n    // }\n\n\n    /// @notice Count all NFTs assigned to an owner\n    /// @dev NFTs assigned to the zero address are considered invalid\n    // function throw for queries about the zero address\n    /// @param _owner An address for whom to query the balance \n    /// @return The number of NFTs owned by `_owner`, possibly zero\n\n    function balanceOf(address _owner) public view returns(uint256) {\n\n        require(_owner != address(0), 'ERC721: token query for non existent owner');\n        return _ownedTokenCount[_owner];\n\n    }\n\n\n    /// @notice Find the owner of an NFT\n    /// @dev NFTs assigned to zero address are considered invalid\n    /// and queries about them do throw\n    /// @param _tokenId The identifier for an NFT\n    /// @return The address of the owner of the NFT\n\n    function ownerOf(uint _tokenId) public view returns(address) {\n\n        address owner = _tokenOwner[_tokenId];\n        require(owner != address(0), 'ERC721: owner query for non existent token');\n        require(_tokenOwner[_tokenId] != address(0), 'ERC721: Non existent token');\n        return owner;\n\n    }\n\n\n    function _mint(address to, uint256 tokenId) internal virtual {\n\n        // Requires that the address isn't zero\n        require(to != address(0), 'ERC721: minting to the zero address');\n\n        // Requires that the token hadn't already been minted \n        // (by calling the function exists that we created above)\n\n        require(_tokenOwner[tokenId] == address(0), 'ERC721: Token already minted');\n        // We are adding a new address with a token id for minting\n        _tokenOwner[tokenId] = to;\n\n        // We're keeping track of each address that is minting \n        // and adding one to the count\n        _ownedTokenCount[to] += 1;\n\n        emit Transfer(address(0), to, tokenId);\n\n    }\n\n\n    /// @notice Transfer ownership of an NFT -- THE CALLER IS RESPONSIBLE\n    /// TO CONFIRM THAT `_to` IS CAPABLE OF RECEIVING NFTs OR ELSE\n    /// THEY MAY BE PERMANENTLY LOST\n    /// @dev Throws unless `msg.sender` is the current owner, an aythorized\n    /// operatof, or the approved address for this NFT. Throw if `_from` is\n    /// not the current owner. Throws if `_to` is the zero address. Throws if\n    /// `_tokenId` is not a valid NFT.\n    /// @param _from The current owner of the NFT\n    /// @param _to The new owner\n    /// @param _tokenId The NFT to transfer\n\n    function _transferFrom(address _from, address _to, uint256 _tokenId) internal {\n\n        // Add some safe functionnalities:\n        //  a. require that the address receiving a token is not a zero address\n        require(_to != address(0), 'ERC721 Transfer to the zero address');\n        //  b. require the address transfering the token actually owns the token\n        //      We've already created a function for that return the owner of \n        //      a specific token, as well as checking if token exists\n        require(ownerOf(_tokenId) == _from, 'ERC721: Trying to transger a token  the address does not own !');\n\n        // Update the balance of the address `_from`\n        _ownedTokenCount[_from] -= 1;\n\n        // Update the balance of the address `_to`\n        _ownedTokenCount[_to] += 1;\n\n        // Add the `_tokenId` to the address receiving `_to` - which receive the token\n        _tokenOwner[_tokenId] = _to;\n\n        emit Transfer(_from, _to, _tokenId);\n\n    }\n\n    function tranferFrom(address _from, address _to, uint256 _tokenId) public {\n        _transferFrom(_from, _to, _tokenId);\n    }\n    \n}",
  "sourcePath": "/home/marie-lou/Desktop/crypto-birdz/src/contracts/ERC721.sol",
  "compiler": {
    "name": "solc",
    "version": "0.8.19+commit.7dd6d404.Emscripten.clang"
  },
  "schemaVersion": "3.4.12",
  "updatedAt": "2023-02-28T12:42:34.775Z",
  "devdoc": {
    "kind": "dev",
    "methods": {
      "balanceOf(address)": {
        "params": {
          "_owner": "An address for whom to query the balance "
        },
        "returns": {
          "_0": "The number of NFTs owned by `_owner`, possibly zero"
        }
      },
      "ownerOf(uint256)": {
        "details": "NFTs assigned to zero address are considered invalid and queries about them do throw",
        "params": {
          "_tokenId": "The identifier for an NFT"
        },
        "returns": {
          "_0": "The address of the owner of the NFT"
        }
      }
    },
    "version": 1
  },
  "userdoc": {
    "kind": "user",
    "methods": {
      "ownerOf(uint256)": {
        "notice": "Find the owner of an NFT"
      }
    },
    "version": 1
  }
}