{
  "contractName": "ERC721Enumerable",
  "abi": [
    {
      "anonymous": false,
      "inputs": [
        {
          "indexed": true,
          "internalType": "address",
          "name": "from",
          "type": "address"
        },
        {
          "indexed": true,
          "internalType": "address",
          "name": "to",
          "type": "address"
        },
        {
          "indexed": true,
          "internalType": "uint256",
          "name": "tokenId",
          "type": "uint256"
        }
      ],
      "name": "Transfer",
      "type": "event"
    },
    {
      "inputs": [
        {
          "internalType": "address",
          "name": "_owner",
          "type": "address"
        }
      ],
      "name": "balanceOf",
      "outputs": [
        {
          "internalType": "uint256",
          "name": "",
          "type": "uint256"
        }
      ],
      "stateMutability": "view",
      "type": "function"
    },
    {
      "inputs": [
        {
          "internalType": "uint256",
          "name": "_tokenId",
          "type": "uint256"
        }
      ],
      "name": "ownerOf",
      "outputs": [
        {
          "internalType": "address",
          "name": "",
          "type": "address"
        }
      ],
      "stateMutability": "view",
      "type": "function"
    },
    {
      "inputs": [
        {
          "internalType": "address",
          "name": "_from",
          "type": "address"
        },
        {
          "internalType": "address",
          "name": "_to",
          "type": "address"
        },
        {
          "internalType": "uint256",
          "name": "_tokenId",
          "type": "uint256"
        }
      ],
      "name": "tranferFrom",
      "outputs": [],
      "stateMutability": "nonpayable",
      "type": "function"
    },
    {
      "inputs": [],
      "name": "totalSupply",
      "outputs": [
        {
          "internalType": "uint256",
          "name": "",
          "type": "uint256"
        }
      ],
      "stateMutability": "view",
      "type": "function"
    },
    {
      "inputs": [
        {
          "internalType": "uint256",
          "name": "_index",
          "type": "uint256"
        }
      ],
      "name": "tokenByIndex",
      "outputs": [
        {
          "internalType": "uint256",
          "name": "",
          "type": "uint256"
        }
      ],
      "stateMutability": "view",
      "type": "function"
    },
    {
      "inputs": [
        {
          "internalType": "address",
          "name": "_owner",
          "type": "address"
        },
        {
          "internalType": "uint256",
          "name": "_index",
          "type": "uint256"
        }
      ],
      "name": "tokenOfOwnerByIndex",
      "outputs": [
        {
          "internalType": "uint256",
          "name": "",
          "type": "uint256"
        }
      ],
      "stateMutability": "view",
      "type": "function"
    }
  ],
  "bytecode": "0x608060405234801561001057600080fd5b50610d5a806100206000396000f3fe608060405234801561001057600080fd5b50600436106100625760003560e01c806318160ddd146100675780632f745c59146100855780634f6ccce7146100b55780636352211e146100e557806370a08231146101155780639264a16914610145575b600080fd5b61006f610161565b60405161007c9190610700565b60405180910390f35b61009f600480360381019061009a91906107aa565b61016e565b6040516100ac9190610700565b60405180910390f35b6100cf60048036038101906100ca91906107ea565b61021e565b6040516100dc9190610700565b60405180910390f35b6100ff60048036038101906100fa91906107ea565b61028d565b60405161010c9190610826565b60405180910390f35b61012f600480360381019061012a9190610841565b6103de565b60405161013c9190610700565b60405180910390f35b61015f600480360381019061015a919061086e565b610495565b005b6000600380549050905090565b6000610179836103de565b82106101ba576040517f08c379a00000000000000000000000000000000000000000000000000000000081526004016101b19061091e565b60405180910390fd5b600560008473ffffffffffffffffffffffffffffffffffffffff1673ffffffffffffffffffffffffffffffffffffffff168152602001908152602001600020828154811061020b5761020a61093e565b5b9060005260206000200154905092915050565b60006003805490508210610267576040517f08c379a000000000000000000000000000000000000000000000000000000000815260040161025e906109b9565b60405180910390fd5b6003828154811061027b5761027a61093e565b5b90600052602060002001549050919050565b60008060008084815260200190815260200160002060009054906101000a900473ffffffffffffffffffffffffffffffffffffffff169050600073ffffffffffffffffffffffffffffffffffffffff168173ffffffffffffffffffffffffffffffffffffffff1603610334576040517f08c379a000000000000000000000000000000000000000000000000000000000815260040161032b90610a4b565b60405180910390fd5b600073ffffffffffffffffffffffffffffffffffffffff1660008085815260200190815260200160002060009054906101000a900473ffffffffffffffffffffffffffffffffffffffff1673ffffffffffffffffffffffffffffffffffffffff16036103d5576040517f08c379a00000000000000000000000000000000000000000000000000000000081526004016103cc90610ab7565b60405180910390fd5b80915050919050565b60008073ffffffffffffffffffffffffffffffffffffffff168273ffffffffffffffffffffffffffffffffffffffff160361044e576040517f08c379a000000000000000000000000000000000000000000000000000000000815260040161044590610b49565b60405180910390fd5b600160008373ffffffffffffffffffffffffffffffffffffffff1673ffffffffffffffffffffffffffffffffffffffff168152602001908152602001600020549050919050565b6104a08383836104a5565b505050565b600073ffffffffffffffffffffffffffffffffffffffff168273ffffffffffffffffffffffffffffffffffffffff1603610514576040517f08c379a000000000000000000000000000000000000000000000000000000000815260040161050b90610bdb565b60405180910390fd5b8273ffffffffffffffffffffffffffffffffffffffff166105348261028d565b73ffffffffffffffffffffffffffffffffffffffff161461058a576040517f08c379a000000000000000000000000000000000000000000000000000000000815260040161058190610c6d565b60405180910390fd5b60018060008573ffffffffffffffffffffffffffffffffffffffff1673ffffffffffffffffffffffffffffffffffffffff16815260200190815260200160002060008282546105d99190610cbc565b9250508190555060018060008473ffffffffffffffffffffffffffffffffffffffff1673ffffffffffffffffffffffffffffffffffffffff168152602001908152602001600020600082825461062f9190610cf0565b925050819055508160008083815260200190815260200160002060006101000a81548173ffffffffffffffffffffffffffffffffffffffff021916908373ffffffffffffffffffffffffffffffffffffffff160217905550808273ffffffffffffffffffffffffffffffffffffffff168473ffffffffffffffffffffffffffffffffffffffff167fddf252ad1be2c89b69c2b068fc378daa952ba7f163c4a11628f55a4df523b3ef60405160405180910390a4505050565b6000819050919050565b6106fa816106e7565b82525050565b600060208201905061071560008301846106f1565b92915050565b600080fd5b600073ffffffffffffffffffffffffffffffffffffffff82169050919050565b600061074b82610720565b9050919050565b61075b81610740565b811461076657600080fd5b50565b60008135905061077881610752565b92915050565b610787816106e7565b811461079257600080fd5b50565b6000813590506107a48161077e565b92915050565b600080604083850312156107c1576107c061071b565b5b60006107cf85828601610769565b92505060206107e085828601610795565b9150509250929050565b600060208284031215610800576107ff61071b565b5b600061080e84828501610795565b91505092915050565b61082081610740565b82525050565b600060208201905061083b6000830184610817565b92915050565b6000602082840312156108575761085661071b565b5b600061086584828501610769565b91505092915050565b6000806000606084860312156108875761088661071b565b5b600061089586828701610769565b93505060206108a686828701610769565b92505060406108b786828701610795565b9150509250925092565b600082825260208201905092915050565b7f4f776e657220696e646578206973206f7574206f6620626f756e647321000000600082015250565b6000610908601d836108c1565b9150610913826108d2565b602082019050919050565b60006020820190508181036000830152610937816108fb565b9050919050565b7f4e487b7100000000000000000000000000000000000000000000000000000000600052603260045260246000fd5b7f476c6f62616c20696e646578206973206f7574206f6620626f756e6473210000600082015250565b60006109a3601e836108c1565b91506109ae8261096d565b602082019050919050565b600060208201905081810360008301526109d281610996565b9050919050565b7f4552433732313a206f776e657220717565727920666f72206e6f6e206578697360008201527f74656e7420746f6b656e00000000000000000000000000000000000000000000602082015250565b6000610a35602a836108c1565b9150610a40826109d9565b604082019050919050565b60006020820190508181036000830152610a6481610a28565b9050919050565b7f4552433732313a204e6f6e206578697374656e7420746f6b656e000000000000600082015250565b6000610aa1601a836108c1565b9150610aac82610a6b565b602082019050919050565b60006020820190508181036000830152610ad081610a94565b9050919050565b7f4552433732313a20746f6b656e20717565727920666f72206e6f6e206578697360008201527f74656e74206f776e657200000000000000000000000000000000000000000000602082015250565b6000610b33602a836108c1565b9150610b3e82610ad7565b604082019050919050565b60006020820190508181036000830152610b6281610b26565b9050919050565b7f455243373231205472616e7366657220746f20746865207a65726f206164647260008201527f6573730000000000000000000000000000000000000000000000000000000000602082015250565b6000610bc56023836108c1565b9150610bd082610b69565b604082019050919050565b60006020820190508181036000830152610bf481610bb8565b9050919050565b7f4552433732313a20547279696e6720746f207472616e73676572206120746f6b60008201527f656e2020746865206164647265737320646f6573206e6f74206f776e20210000602082015250565b6000610c57603e836108c1565b9150610c6282610bfb565b604082019050919050565b60006020820190508181036000830152610c8681610c4a565b9050919050565b7f4e487b7100000000000000000000000000000000000000000000000000000000600052601160045260246000fd5b6000610cc7826106e7565b9150610cd2836106e7565b9250828203905081811115610cea57610ce9610c8d565b5b92915050565b6000610cfb826106e7565b9150610d06836106e7565b9250828201905080821115610d1e57610d1d610c8d565b5b9291505056fea2646970667358221220cc7f8e90432e9476cfb92d30832b86c374012a3ebe3262a03ee874e4bb33d88164736f6c63430008130033",
  "immutableReferences": {},
  "source": "// SPDX-License-Identifier: MIT\npragma solidity ^0.8.0;\n\nimport './ERC721.sol';\n\ncontract ERC721Enumerable is ERC721 {\n\n    uint256[] private _allTokens;\n\n    // Mapping from tokenId to position in _allTokens array\n    mapping(uint256 => uint256) private _allTokensIndex;\n\n    // Mapping of owner to list of all owner token ids\n    mapping(address => uint256[]) private _ownedTokens;\n\n    // Mapping from token ID to index of the owner tokens list (_ownedTokens)\n    mapping(uint256 => uint256) private _ownedTokensIndex;\n\n\n    /// @notice Count NFTs tracked by this contract\n    /// @return A count of valid NFTs tracked by this contract, \n    /// where each of them has an assigned and queryable owner\n    // not equal to the zero address\n\n    function totalSupply() external view returns(uint256) {\n        return _allTokens.length;\n    }\n\n\n    /// @notice Enumerate valid NFTs\n    /// @dev Throws if `_index` >= `totalSupply()`\n    /// @param _index A counter less than `totalSupply()`\n    /// @return The token identifier for the `_index`th NFT,\n    /// (sort order not specified)\n\n    function tokenByIndex(uint256 _index) external view returns(uint256) {\n\n        require(_index < _allTokens.length, 'Global index is out of bounds!');\n        return _allTokens[_index];\n    \n    }\n\n\n    /// @notice Enumerate NFTs assigne to an owner\n    /// @dev Throws if `_index` >= `balanceOf(_owner)` or if\n    /// `_owner` is the zero address, representing invalid NFTs.\n    /// @param _owner An address where we are interested in NFTs owner\n    /// @param _index A counter less than `balanceOf(_owner)`\n    /// @return The token identifier for the `_index`th NFT assigned \n    /// (sort order not specified)\n    \n    function tokenOfOwnerByIndex(address _owner, uint256 _index) external view returns (uint256){\n\n        // require(_owner != address(0));\n        require(_index < balanceOf(_owner), 'Owner index is out of bounds!');\n        return _ownedTokens[_owner][_index];\n\n    }\n\n\n    // Add tokens to the _allTokens array and set position of the tokens indexes\n    function _addTokensToAllTokenEnumeration(uint256 tokenId) private {\n\n\n        /* There are 2 ways to get the position of the tokenId in _allTokens\n            1st:\n                We push the tokenId on _allTokens array\n                Then we get the indexOf tokenId in the array:\n\n                _allTokens.push(tokenId);\n                _allTokensIndex[tokenId] = _allTokens.indexOf(tokenId);\n\n            2nd:\n                Before pushing tokenId in the array, we get the length of the array and we assign it in _allTokenIndex[tokenId]\n                Then we push tokenId, so the position of tokenId will be the length we got before:\n        */\n        \n        _allTokensIndex[tokenId] = _allTokens.length;\n        _allTokens.push(tokenId);\n\n    }\n\n    function _addTokensToOwnerEnumeration(address to, uint256 tokenId) private {\n\n        // 1. Add address and token id to the _ownedTokens\n        // 2. ownedTokenIndex[tokenId] set to index of the owner tokens list (_ownedTokens)\n        // 3. We want to execute the function with minting\n        _ownedTokensIndex[tokenId] = _ownedTokens[to].length;\n        _ownedTokens[to].push(tokenId);\n\n    }\n\n\n    function _mint(address to, uint256 tokenId) internal override(ERC721) {\n\n        super._mint(to, tokenId);\n\n        /* \n            2 things:\n                A. Add tokens to the owner\n                B. Add tokens to our totalSupply - to allTokens\n        */\n\n        // A.\n        _addTokensToAllTokenEnumeration(tokenId);\n\n        // B.\n        _addTokensToOwnerEnumeration(to, tokenId);\n\n    }\n\n\n\n}",
  "sourcePath": "/home/marie-lou/Desktop/crypto-birdz/src/contracts/ERC721Enumerable.sol",
  "compiler": {
    "name": "solc",
    "version": "0.8.19+commit.7dd6d404.Emscripten.clang"
  },
  "schemaVersion": "3.4.12",
  "updatedAt": "2023-02-28T12:42:34.784Z",
  "devdoc": {
    "kind": "dev",
    "methods": {
      "balanceOf(address)": {
        "params": {
          "_owner": "An address for whom to query the balance "
        },
        "returns": {
          "_0": "The number of NFTs owned by `_owner`, possibly zero"
        }
      },
      "ownerOf(uint256)": {
        "details": "NFTs assigned to zero address are considered invalid and queries about them do throw",
        "params": {
          "_tokenId": "The identifier for an NFT"
        },
        "returns": {
          "_0": "The address of the owner of the NFT"
        }
      },
      "tokenByIndex(uint256)": {
        "details": "Throws if `_index` >= `totalSupply()`",
        "params": {
          "_index": "A counter less than `totalSupply()`"
        },
        "returns": {
          "_0": "The token identifier for the `_index`th NFT, (sort order not specified)"
        }
      },
      "tokenOfOwnerByIndex(address,uint256)": {
        "details": "Throws if `_index` >= `balanceOf(_owner)` or if `_owner` is the zero address, representing invalid NFTs.",
        "params": {
          "_index": "A counter less than `balanceOf(_owner)`",
          "_owner": "An address where we are interested in NFTs owner"
        },
        "returns": {
          "_0": "The token identifier for the `_index`th NFT assigned  (sort order not specified)"
        }
      },
      "totalSupply()": {
        "returns": {
          "_0": "A count of valid NFTs tracked by this contract,  where each of them has an assigned and queryable owner"
        }
      }
    },
    "version": 1
  },
  "userdoc": {
    "kind": "user",
    "methods": {
      "ownerOf(uint256)": {
        "notice": "Find the owner of an NFT"
      },
      "tokenByIndex(uint256)": {
        "notice": "Enumerate valid NFTs"
      },
      "tokenOfOwnerByIndex(address,uint256)": {
        "notice": "Enumerate NFTs assigne to an owner"
      },
      "totalSupply()": {
        "notice": "Count NFTs tracked by this contract"
      }
    },
    "version": 1
  }
}