{
  "contractName": "KryptoBird",
  "abi": [
    {
      "inputs": [],
      "stateMutability": "nonpayable",
      "type": "constructor"
    },
    {
      "anonymous": false,
      "inputs": [
        {
          "indexed": true,
          "internalType": "address",
          "name": "from",
          "type": "address"
        },
        {
          "indexed": true,
          "internalType": "address",
          "name": "to",
          "type": "address"
        },
        {
          "indexed": true,
          "internalType": "uint256",
          "name": "tokenId",
          "type": "uint256"
        }
      ],
      "name": "Transfer",
      "type": "event"
    },
    {
      "inputs": [
        {
          "internalType": "address",
          "name": "_owner",
          "type": "address"
        }
      ],
      "name": "balanceOf",
      "outputs": [
        {
          "internalType": "uint256",
          "name": "",
          "type": "uint256"
        }
      ],
      "stateMutability": "view",
      "type": "function",
      "constant": true
    },
    {
      "inputs": [
        {
          "internalType": "uint256",
          "name": "",
          "type": "uint256"
        }
      ],
      "name": "kryptoBirdz",
      "outputs": [
        {
          "internalType": "string",
          "name": "",
          "type": "string"
        }
      ],
      "stateMutability": "view",
      "type": "function",
      "constant": true
    },
    {
      "inputs": [],
      "name": "name",
      "outputs": [
        {
          "internalType": "string",
          "name": "",
          "type": "string"
        }
      ],
      "stateMutability": "view",
      "type": "function",
      "constant": true
    },
    {
      "inputs": [
        {
          "internalType": "uint256",
          "name": "_tokenId",
          "type": "uint256"
        }
      ],
      "name": "ownerOf",
      "outputs": [
        {
          "internalType": "address",
          "name": "",
          "type": "address"
        }
      ],
      "stateMutability": "view",
      "type": "function",
      "constant": true
    },
    {
      "inputs": [],
      "name": "symbol",
      "outputs": [
        {
          "internalType": "string",
          "name": "",
          "type": "string"
        }
      ],
      "stateMutability": "view",
      "type": "function",
      "constant": true
    },
    {
      "inputs": [
        {
          "internalType": "uint256",
          "name": "_index",
          "type": "uint256"
        }
      ],
      "name": "tokenByIndex",
      "outputs": [
        {
          "internalType": "uint256",
          "name": "",
          "type": "uint256"
        }
      ],
      "stateMutability": "view",
      "type": "function",
      "constant": true
    },
    {
      "inputs": [
        {
          "internalType": "address",
          "name": "_owner",
          "type": "address"
        },
        {
          "internalType": "uint256",
          "name": "_index",
          "type": "uint256"
        }
      ],
      "name": "tokenOfOwnerByIndex",
      "outputs": [
        {
          "internalType": "uint256",
          "name": "",
          "type": "uint256"
        }
      ],
      "stateMutability": "view",
      "type": "function",
      "constant": true
    },
    {
      "inputs": [],
      "name": "totalSupply",
      "outputs": [
        {
          "internalType": "uint256",
          "name": "",
          "type": "uint256"
        }
      ],
      "stateMutability": "view",
      "type": "function",
      "constant": true
    },
    {
      "inputs": [
        {
          "internalType": "address",
          "name": "_from",
          "type": "address"
        },
        {
          "internalType": "address",
          "name": "_to",
          "type": "address"
        },
        {
          "internalType": "uint256",
          "name": "_tokenId",
          "type": "uint256"
        }
      ],
      "name": "tranferFrom",
      "outputs": [],
      "stateMutability": "nonpayable",
      "type": "function"
    },
    {
      "inputs": [
        {
          "internalType": "string",
          "name": "_kryptoBird",
          "type": "string"
        }
      ],
      "name": "mint",
      "outputs": [],
      "stateMutability": "nonpayable",
      "type": "function"
    }
  ],
  "bytecode": "0x60806040523480156200001157600080fd5b506040518060400160405280600a81526020017f4b727970746f42697264000000000000000000000000000000000000000000008152506040518060400160405280600681526020017f4b424952445a00000000000000000000000000000000000000000000000000008152508181816000908162000091919062000328565b508060019081620000a3919062000328565b50505050506200040f565b600081519050919050565b7f4e487b7100000000000000000000000000000000000000000000000000000000600052604160045260246000fd5b7f4e487b7100000000000000000000000000000000000000000000000000000000600052602260045260246000fd5b600060028204905060018216806200013057607f821691505b602082108103620001465762000145620000e8565b5b50919050565b60008190508160005260206000209050919050565b60006020601f8301049050919050565b600082821b905092915050565b600060088302620001b07fffffffffffffffffffffffffffffffffffffffffffffffffffffffffffffffff8262000171565b620001bc868362000171565b95508019841693508086168417925050509392505050565b6000819050919050565b6000819050919050565b60006200020962000203620001fd84620001d4565b620001de565b620001d4565b9050919050565b6000819050919050565b6200022583620001e8565b6200023d620002348262000210565b8484546200017e565b825550505050565b600090565b6200025462000245565b620002618184846200021a565b505050565b5b8181101562000289576200027d6000826200024a565b60018101905062000267565b5050565b601f821115620002d857620002a2816200014c565b620002ad8462000161565b81016020851015620002bd578190505b620002d5620002cc8562000161565b83018262000266565b50505b505050565b600082821c905092915050565b6000620002fd60001984600802620002dd565b1980831691505092915050565b6000620003188383620002ea565b9150826002028217905092915050565b6200033382620000ae565b67ffffffffffffffff8111156200034f576200034e620000b9565b5b6200035b825462000117565b620003688282856200028d565b600060209050601f831160018114620003a057600084156200038b578287015190505b6200039785826200030a565b86555062000407565b601f198416620003b0866200014c565b60005b82811015620003da57848901518255600182019150602085019450602081019050620003b3565b86831015620003fa5784890151620003f6601f891682620002ea565b8355505b6001600288020188555050505b505050505050565b611b26806200041f6000396000f3fe608060405234801561001057600080fd5b506004361061009e5760003560e01c806370a082311161006657806370a082311461016f5780639264a1691461019f57806393ab6e56146101bb57806395d89b41146101eb578063d85d3d27146102095761009e565b806306fdde03146100a357806318160ddd146100c15780632f745c59146100df5780634f6ccce71461010f5780636352211e1461013f575b600080fd5b6100ab610225565b6040516100b89190610e54565b60405180910390f35b6100c96102b7565b6040516100d69190610e8f565b60405180910390f35b6100f960048036038101906100f49190610f48565b6102c4565b6040516101069190610e8f565b60405180910390f35b61012960048036038101906101249190610f88565b610374565b6040516101369190610e8f565b60405180910390f35b61015960048036038101906101549190610f88565b6103e3565b6040516101669190610fc4565b60405180910390f35b61018960048036038101906101849190610fdf565b610536565b6040516101969190610e8f565b60405180910390f35b6101b960048036038101906101b4919061100c565b6105ed565b005b6101d560048036038101906101d09190610f88565b6105fd565b6040516101e29190610e54565b60405180910390f35b6101f36106a9565b6040516102009190610e54565b60405180910390f35b610223600480360381019061021e9190611194565b61073b565b005b6060600080546102349061120c565b80601f01602080910402602001604051908101604052809291908181526020018280546102609061120c565b80156102ad5780601f10610282576101008083540402835291602001916102ad565b820191906000526020600020905b81548152906001019060200180831161029057829003601f168201915b5050505050905090565b6000600580549050905090565b60006102cf83610536565b8210610310576040517f08c379a000000000000000000000000000000000000000000000000000000000815260040161030790611289565b60405180910390fd5b600760008473ffffffffffffffffffffffffffffffffffffffff1673ffffffffffffffffffffffffffffffffffffffff1681526020019081526020016000208281548110610361576103606112a9565b5b9060005260206000200154905092915050565b600060058054905082106103bd576040517f08c379a00000000000000000000000000000000000000000000000000000000081526004016103b490611324565b60405180910390fd5b600582815481106103d1576103d06112a9565b5b90600052602060002001549050919050565b6000806002600084815260200190815260200160002060009054906101000a900473ffffffffffffffffffffffffffffffffffffffff169050600073ffffffffffffffffffffffffffffffffffffffff168173ffffffffffffffffffffffffffffffffffffffff160361048b576040517f08c379a0000000000000000000000000000000000000000000000000000000008152600401610482906113b6565b60405180910390fd5b600073ffffffffffffffffffffffffffffffffffffffff166002600085815260200190815260200160002060009054906101000a900473ffffffffffffffffffffffffffffffffffffffff1673ffffffffffffffffffffffffffffffffffffffff160361052d576040517f08c379a000000000000000000000000000000000000000000000000000000000815260040161052490611422565b60405180910390fd5b80915050919050565b60008073ffffffffffffffffffffffffffffffffffffffff168273ffffffffffffffffffffffffffffffffffffffff16036105a6576040517f08c379a000000000000000000000000000000000000000000000000000000000815260040161059d906114b4565b60405180910390fd5b600360008373ffffffffffffffffffffffffffffffffffffffff1673ffffffffffffffffffffffffffffffffffffffff168152602001908152602001600020549050919050565b6105f8838383610837565b505050565b6009818154811061060d57600080fd5b9060005260206000200160009150905080546106289061120c565b80601f01602080910402602001604051908101604052809291908181526020018280546106549061120c565b80156106a15780601f10610676576101008083540402835291602001916106a1565b820191906000526020600020905b81548152906001019060200180831161068457829003601f168201915b505050505081565b6060600180546106b89061120c565b80601f01602080910402602001604051908101604052809291908181526020018280546106e49061120c565b80156107315780601f1061070657610100808354040283529160200191610731565b820191906000526020600020905b81548152906001019060200180831161071457829003601f168201915b5050505050905090565b600a8160405161074b9190611510565b908152602001604051809103902060009054906101000a900460ff16156107a7576040517f08c379a000000000000000000000000000000000000000000000000000000000815260040161079e90611599565b60405180910390fd5b6009819080600181540180825580915050600190039060005260206000200160009091909190915090816107db9190611765565b50600060016009805490506107f09190611866565b90506107fc3382610a7c565b6001600a8360405161080e9190611510565b908152602001604051809103902060006101000a81548160ff0219169083151502179055505050565b600073ffffffffffffffffffffffffffffffffffffffff168273ffffffffffffffffffffffffffffffffffffffff16036108a6576040517f08c379a000000000000000000000000000000000000000000000000000000000815260040161089d9061190c565b60405180910390fd5b8273ffffffffffffffffffffffffffffffffffffffff166108c6826103e3565b73ffffffffffffffffffffffffffffffffffffffff161461091c576040517f08c379a00000000000000000000000000000000000000000000000000000000081526004016109139061199e565b60405180910390fd5b6001600360008573ffffffffffffffffffffffffffffffffffffffff1673ffffffffffffffffffffffffffffffffffffffff168152602001908152602001600020600082825461096c9190611866565b925050819055506001600360008473ffffffffffffffffffffffffffffffffffffffff1673ffffffffffffffffffffffffffffffffffffffff16815260200190815260200160002060008282546109c391906119be565b92505081905550816002600083815260200190815260200160002060006101000a81548173ffffffffffffffffffffffffffffffffffffffff021916908373ffffffffffffffffffffffffffffffffffffffff160217905550808273ffffffffffffffffffffffffffffffffffffffff168473ffffffffffffffffffffffffffffffffffffffff167fddf252ad1be2c89b69c2b068fc378daa952ba7f163c4a11628f55a4df523b3ef60405160405180910390a4505050565b610a868282610a9d565b610a8f81610cb7565b610a998282610d00565b5050565b600073ffffffffffffffffffffffffffffffffffffffff168273ffffffffffffffffffffffffffffffffffffffff1603610b0c576040517f08c379a0000000000000000000000000000000000000000000000000000000008152600401610b0390611a64565b60405180910390fd5b600073ffffffffffffffffffffffffffffffffffffffff166002600083815260200190815260200160002060009054906101000a900473ffffffffffffffffffffffffffffffffffffffff1673ffffffffffffffffffffffffffffffffffffffff1614610bae576040517f08c379a0000000000000000000000000000000000000000000000000000000008152600401610ba590611ad0565b60405180910390fd5b816002600083815260200190815260200160002060006101000a81548173ffffffffffffffffffffffffffffffffffffffff021916908373ffffffffffffffffffffffffffffffffffffffff1602179055506001600360008473ffffffffffffffffffffffffffffffffffffffff1673ffffffffffffffffffffffffffffffffffffffff1681526020019081526020016000206000828254610c5091906119be565b92505081905550808273ffffffffffffffffffffffffffffffffffffffff16600073ffffffffffffffffffffffffffffffffffffffff167fddf252ad1be2c89b69c2b068fc378daa952ba7f163c4a11628f55a4df523b3ef60405160405180910390a45050565b6005805490506006600083815260200190815260200160002081905550600581908060018154018082558091505060019003906000526020600020016000909190919091505550565b600760008373ffffffffffffffffffffffffffffffffffffffff1673ffffffffffffffffffffffffffffffffffffffff168152602001908152602001600020805490506008600083815260200190815260200160002081905550600760008373ffffffffffffffffffffffffffffffffffffffff1673ffffffffffffffffffffffffffffffffffffffff1681526020019081526020016000208190806001815401808255809150506001900390600052602060002001600090919091909150555050565b600081519050919050565b600082825260208201905092915050565b60005b83811015610dfe578082015181840152602081019050610de3565b60008484015250505050565b6000601f19601f8301169050919050565b6000610e2682610dc4565b610e308185610dcf565b9350610e40818560208601610de0565b610e4981610e0a565b840191505092915050565b60006020820190508181036000830152610e6e8184610e1b565b905092915050565b6000819050919050565b610e8981610e76565b82525050565b6000602082019050610ea46000830184610e80565b92915050565b6000604051905090565b600080fd5b600080fd5b600073ffffffffffffffffffffffffffffffffffffffff82169050919050565b6000610ee982610ebe565b9050919050565b610ef981610ede565b8114610f0457600080fd5b50565b600081359050610f1681610ef0565b92915050565b610f2581610e76565b8114610f3057600080fd5b50565b600081359050610f4281610f1c565b92915050565b60008060408385031215610f5f57610f5e610eb4565b5b6000610f6d85828601610f07565b9250506020610f7e85828601610f33565b9150509250929050565b600060208284031215610f9e57610f9d610eb4565b5b6000610fac84828501610f33565b91505092915050565b610fbe81610ede565b82525050565b6000602082019050610fd96000830184610fb5565b92915050565b600060208284031215610ff557610ff4610eb4565b5b600061100384828501610f07565b91505092915050565b60008060006060848603121561102557611024610eb4565b5b600061103386828701610f07565b935050602061104486828701610f07565b925050604061105586828701610f33565b9150509250925092565b600080fd5b600080fd5b7f4e487b7100000000000000000000000000000000000000000000000000000000600052604160045260246000fd5b6110a182610e0a565b810181811067ffffffffffffffff821117156110c0576110bf611069565b5b80604052505050565b60006110d3610eaa565b90506110df8282611098565b919050565b600067ffffffffffffffff8211156110ff576110fe611069565b5b61110882610e0a565b9050602081019050919050565b82818337600083830152505050565b6000611137611132846110e4565b6110c9565b90508281526020810184848401111561115357611152611064565b5b61115e848285611115565b509392505050565b600082601f83011261117b5761117a61105f565b5b813561118b848260208601611124565b91505092915050565b6000602082840312156111aa576111a9610eb4565b5b600082013567ffffffffffffffff8111156111c8576111c7610eb9565b5b6111d484828501611166565b91505092915050565b7f4e487b7100000000000000000000000000000000000000000000000000000000600052602260045260246000fd5b6000600282049050600182168061122457607f821691505b602082108103611237576112366111dd565b5b50919050565b7f4f776e657220696e646578206973206f7574206f6620626f756e647321000000600082015250565b6000611273601d83610dcf565b915061127e8261123d565b602082019050919050565b600060208201905081810360008301526112a281611266565b9050919050565b7f4e487b7100000000000000000000000000000000000000000000000000000000600052603260045260246000fd5b7f476c6f62616c20696e646578206973206f7574206f6620626f756e6473210000600082015250565b600061130e601e83610dcf565b9150611319826112d8565b602082019050919050565b6000602082019050818103600083015261133d81611301565b9050919050565b7f4552433732313a206f776e657220717565727920666f72206e6f6e206578697360008201527f74656e7420746f6b656e00000000000000000000000000000000000000000000602082015250565b60006113a0602a83610dcf565b91506113ab82611344565b604082019050919050565b600060208201905081810360008301526113cf81611393565b9050919050565b7f4552433732313a204e6f6e206578697374656e7420746f6b656e000000000000600082015250565b600061140c601a83610dcf565b9150611417826113d6565b602082019050919050565b6000602082019050818103600083015261143b816113ff565b9050919050565b7f4552433732313a20746f6b656e20717565727920666f72206e6f6e206578697360008201527f74656e74206f776e657200000000000000000000000000000000000000000000602082015250565b600061149e602a83610dcf565b91506114a982611442565b604082019050919050565b600060208201905081810360008301526114cd81611491565b9050919050565b600081905092915050565b60006114ea82610dc4565b6114f481856114d4565b9350611504818560208601610de0565b80840191505092915050565b600061151c82846114df565b915081905092915050565b7f4572726f72202d206b727970746f426972642068616420616c7265616479206260008201527f65656e206d696e74656400000000000000000000000000000000000000000000602082015250565b6000611583602a83610dcf565b915061158e82611527565b604082019050919050565b600060208201905081810360008301526115b281611576565b9050919050565b60008190508160005260206000209050919050565b60006020601f8301049050919050565b600082821b905092915050565b60006008830261161b7fffffffffffffffffffffffffffffffffffffffffffffffffffffffffffffffff826115de565b61162586836115de565b95508019841693508086168417925050509392505050565b6000819050919050565b600061166261165d61165884610e76565b61163d565b610e76565b9050919050565b6000819050919050565b61167c83611647565b61169061168882611669565b8484546115eb565b825550505050565b600090565b6116a5611698565b6116b0818484611673565b505050565b5b818110156116d4576116c960008261169d565b6001810190506116b6565b5050565b601f821115611719576116ea816115b9565b6116f3846115ce565b81016020851015611702578190505b61171661170e856115ce565b8301826116b5565b50505b505050565b600082821c905092915050565b600061173c6000198460080261171e565b1980831691505092915050565b6000611755838361172b565b9150826002028217905092915050565b61176e82610dc4565b67ffffffffffffffff81111561178757611786611069565b5b611791825461120c565b61179c8282856116d8565b600060209050601f8311600181146117cf57600084156117bd578287015190505b6117c78582611749565b86555061182f565b601f1984166117dd866115b9565b60005b82811015611805578489015182556001820191506020850194506020810190506117e0565b86831015611822578489015161181e601f89168261172b565b8355505b6001600288020188555050505b505050505050565b7f4e487b7100000000000000000000000000000000000000000000000000000000600052601160045260246000fd5b600061187182610e76565b915061187c83610e76565b925082820390508181111561189457611893611837565b5b92915050565b7f455243373231205472616e7366657220746f20746865207a65726f206164647260008201527f6573730000000000000000000000000000000000000000000000000000000000602082015250565b60006118f6602383610dcf565b91506119018261189a565b604082019050919050565b60006020820190508181036000830152611925816118e9565b9050919050565b7f4552433732313a20547279696e6720746f207472616e73676572206120746f6b60008201527f656e2020746865206164647265737320646f6573206e6f74206f776e20210000602082015250565b6000611988603e83610dcf565b91506119938261192c565b604082019050919050565b600060208201905081810360008301526119b78161197b565b9050919050565b60006119c982610e76565b91506119d483610e76565b92508282019050808211156119ec576119eb611837565b5b92915050565b7f4552433732313a206d696e74696e6720746f20746865207a65726f206164647260008201527f6573730000000000000000000000000000000000000000000000000000000000602082015250565b6000611a4e602383610dcf565b9150611a59826119f2565b604082019050919050565b60006020820190508181036000830152611a7d81611a41565b9050919050565b7f4552433732313a20546f6b656e20616c7265616479206d696e74656400000000600082015250565b6000611aba601c83610dcf565b9150611ac582611a84565b602082019050919050565b60006020820190508181036000830152611ae981611aad565b905091905056fea2646970667358221220ca15c0a5cd034d4185a628cbf1dbed0f3c9f2e05e412569c97f781cfc93a711464736f6c63430008130033",
  "immutableReferences": {},
  "source": "// SPDX-License-Identifier: MIT\npragma solidity ^0.8.0;\n\nimport './ERC721Connector.sol';\n\ncontract KryptoBird is ERC721Connector {\n\n    // Array to store our nfts\n    string[] public kryptoBirdz;\n\n    mapping(string => bool) _kryptoBirdzExists;\n\n    function mint(string memory _kryptoBird) public {\n\n        require(!_kryptoBirdzExists[_kryptoBird], 'Error - kryptoBird had already been minted');\n\n        // this is deprecated - uint _id = kryptoBirdz.push(_kryptoBird);\n        // .push not longer returns the length but a ref to the added element\n\n        // I should test out if this can replace the 2 lines under\n        // uint _id = kryptoBirdz.push(_kryptoBird).length - 1;\n\n        kryptoBirdz.push(_kryptoBird);\n        uint _id = kryptoBirdz.length - 1;\n\n        _mint(msg.sender, _id);\n\n        _kryptoBirdzExists[_kryptoBird] = true;\n\n    }\n\n    constructor() ERC721Connector('KryptoBird', 'KBIRDZ') { }\n\n}",
  "sourcePath": "/home/marie-lou/Desktop/crypto-birdz/src/contracts/KryptoBirdz.sol",
  "compiler": {
    "name": "solc",
    "version": "0.8.19+commit.7dd6d404.Emscripten.clang"
  },
  "schemaVersion": "3.4.12",
  "updatedAt": "2023-03-01T14:49:08.932Z",
  "networkType": "ethereum",
  "devdoc": {
    "kind": "dev",
    "methods": {
      "balanceOf(address)": {
        "params": {
          "_owner": "An address for whom to query the balance "
        },
        "returns": {
          "_0": "The number of NFTs owned by `_owner`, possibly zero"
        }
      },
      "ownerOf(uint256)": {
        "details": "NFTs assigned to zero address are considered invalid and queries about them do throw",
        "params": {
          "_tokenId": "The identifier for an NFT"
        },
        "returns": {
          "_0": "The address of the owner of the NFT"
        }
      },
      "tokenByIndex(uint256)": {
        "details": "Throws if `_index` >= `totalSupply()`",
        "params": {
          "_index": "A counter less than `totalSupply()`"
        },
        "returns": {
          "_0": "The token identifier for the `_index`th NFT, (sort order not specified)"
        }
      },
      "tokenOfOwnerByIndex(address,uint256)": {
        "details": "Throws if `_index` >= `balanceOf(_owner)` or if `_owner` is the zero address, representing invalid NFTs.",
        "params": {
          "_index": "A counter less than `balanceOf(_owner)`",
          "_owner": "An address where we are interested in NFTs owner"
        },
        "returns": {
          "_0": "The token identifier for the `_index`th NFT assigned  (sort order not specified)"
        }
      },
      "totalSupply()": {
        "returns": {
          "_0": "A count of valid NFTs tracked by this contract,  where each of them has an assigned and queryable owner"
        }
      }
    },
    "version": 1
  },
  "userdoc": {
    "kind": "user",
    "methods": {
      "ownerOf(uint256)": {
        "notice": "Find the owner of an NFT"
      },
      "tokenByIndex(uint256)": {
        "notice": "Enumerate valid NFTs"
      },
      "tokenOfOwnerByIndex(address,uint256)": {
        "notice": "Enumerate NFTs assigne to an owner"
      },
      "totalSupply()": {
        "notice": "Count NFTs tracked by this contract"
      }
    },
    "version": 1
  }
}